{
	"contracts/3_Ballot.sol": {
		"Ballot": {
			"abi": [
				{
					"inputs": [
						{
							"internalType": "bytes32[]",
							"name": "proposalNames",
							"type": "bytes32[]"
						}
					],
					"stateMutability": "nonpayable",
					"type": "constructor"
				},
				{
					"inputs": [],
					"name": "chairperson",
					"outputs": [
						{
							"internalType": "address",
							"name": "",
							"type": "address"
						}
					],
					"stateMutability": "view",
					"type": "function"
				},
				{
					"inputs": [
						{
							"internalType": "address",
							"name": "to",
							"type": "address"
						}
					],
					"name": "delegate",
					"outputs": [],
					"stateMutability": "nonpayable",
					"type": "function"
				},
				{
					"inputs": [
						{
							"internalType": "address",
							"name": "voter",
							"type": "address"
						}
					],
					"name": "giveRightToVote",
					"outputs": [],
					"stateMutability": "nonpayable",
					"type": "function"
				},
				{
					"inputs": [
						{
							"internalType": "uint256",
							"name": "",
							"type": "uint256"
						}
					],
					"name": "proposals",
					"outputs": [
						{
							"internalType": "bytes32",
							"name": "name",
							"type": "bytes32"
						},
						{
							"internalType": "uint256",
							"name": "voteCount",
							"type": "uint256"
						}
					],
					"stateMutability": "view",
					"type": "function"
				},
				{
					"inputs": [],
					"name": "startTime",
					"outputs": [
						{
							"internalType": "uint256",
							"name": "",
							"type": "uint256"
						}
					],
					"stateMutability": "view",
					"type": "function"
				},
				{
					"inputs": [
						{
							"internalType": "uint256",
							"name": "proposal",
							"type": "uint256"
						}
					],
					"name": "vote",
					"outputs": [],
					"stateMutability": "nonpayable",
					"type": "function"
				},
				{
					"inputs": [
						{
							"internalType": "address",
							"name": "",
							"type": "address"
						}
					],
					"name": "voters",
					"outputs": [
						{
							"internalType": "uint256",
							"name": "weight",
							"type": "uint256"
						},
						{
							"internalType": "bool",
							"name": "voted",
							"type": "bool"
						},
						{
							"internalType": "address",
							"name": "delegate",
							"type": "address"
						},
						{
							"internalType": "uint256",
							"name": "vote",
							"type": "uint256"
						}
					],
					"stateMutability": "view",
					"type": "function"
				},
				{
					"inputs": [],
					"name": "winnerName",
					"outputs": [
						{
							"internalType": "bytes32",
							"name": "winnerName_",
							"type": "bytes32"
						}
					],
					"stateMutability": "view",
					"type": "function"
				},
				{
					"inputs": [],
					"name": "winningProposal",
					"outputs": [
						{
							"internalType": "uint256",
							"name": "winningProposal_",
							"type": "uint256"
						}
					],
					"stateMutability": "view",
					"type": "function"
				}
			],
			"devdoc": {
				"details": "Implements voting process along with vote delegation",
				"kind": "dev",
				"methods": {
					"constructor": {
						"details": "Create a new ballot to choose one of 'proposalNames'.",
						"params": {
							"proposalNames": "names of proposals"
						}
					},
					"delegate(address)": {
						"details": "Delegate your vote to the voter 'to'.",
						"params": {
							"to": "address to which vote is delegated"
						}
					},
					"giveRightToVote(address)": {
						"details": "Give 'voter' the right to vote on this ballot. May only be called by 'chairperson'.",
						"params": {
							"voter": "address of voter"
						}
					},
					"vote(uint256)": {
						"details": "Give your vote (including votes delegated to you) to proposal 'proposals[proposal].name'.",
						"params": {
							"proposal": "index of proposal in the proposals array"
						}
					},
					"winnerName()": {
						"details": "Calls winningProposal() function to get the index of the winner contained in the proposals array and then",
						"returns": {
							"winnerName_": "the name of the winner"
						}
					},
					"winningProposal()": {
						"details": "Computes the winning proposal taking all previous votes into account.",
						"returns": {
							"winningProposal_": "index of winning proposal in the proposals array"
						}
					}
				},
				"title": "Ballot",
				"version": 1
			},
			"evm": {
				"assembly": "    /* \"contracts/3_Ballot.sol\":157:4774  contract Ballot {... */\n  mstore(0x40, 0x80)\n    /* \"contracts/3_Ballot.sol\":989:1507  constructor(bytes32[] memory proposalNames) {... */\n  callvalue\n  dup1\n  iszero\n  tag_1\n  jumpi\n  0x00\n  dup1\n  revert\ntag_1:\n  pop\n  mload(0x40)\n  sub(codesize, bytecodeSize)\n  dup1\n  bytecodeSize\n  dup4\n  codecopy\n  dup2\n  dup2\n  add\n  0x40\n  mstore\n  dup2\n  add\n  swap1\n  tag_2\n  swap2\n  swap1\n  tag_3\n  jump\t// in\ntag_2:\n    /* \"contracts/3_Ballot.sol\":1057:1067  msg.sender */\n  caller\n    /* \"contracts/3_Ballot.sol\":1043:1054  chairperson */\n  0x00\n  dup1\n    /* \"contracts/3_Ballot.sol\":1043:1067  chairperson = msg.sender */\n  0x0100\n  exp\n  dup2\n  sload\n  dup2\n  0xffffffffffffffffffffffffffffffffffffffff\n  mul\n  not\n  and\n  swap1\n  dup4\n  0xffffffffffffffffffffffffffffffffffffffff\n  and\n  mul\n  or\n  swap1\n  sstore\n  pop\n    /* \"contracts/3_Ballot.sol\":1106:1107  1 */\n  0x01\n    /* \"contracts/3_Ballot.sol\":1077:1083  voters */\n  0x02\n    /* \"contracts/3_Ballot.sol\":1077:1096  voters[chairperson] */\n  0x00\n    /* \"contracts/3_Ballot.sol\":1084:1095  chairperson */\n  dup1\n  0x00\n  swap1\n  sload\n  swap1\n  0x0100\n  exp\n  swap1\n  div\n  0xffffffffffffffffffffffffffffffffffffffff\n  and\n    /* \"contracts/3_Ballot.sol\":1077:1096  voters[chairperson] */\n  0xffffffffffffffffffffffffffffffffffffffff\n  and\n  0xffffffffffffffffffffffffffffffffffffffff\n  and\n  dup2\n  mstore\n  0x20\n  add\n  swap1\n  dup2\n  mstore\n  0x20\n  add\n  0x00\n  keccak256\n    /* \"contracts/3_Ballot.sol\":1077:1103  voters[chairperson].weight */\n  0x00\n  add\n    /* \"contracts/3_Ballot.sol\":1077:1107  voters[chairperson].weight = 1 */\n  dup2\n  swap1\n  sstore\n  pop\n    /* \"contracts/3_Ballot.sol\":1129:1144  block.timestamp */\n  timestamp\n    /* \"contracts/3_Ballot.sol\":1117:1126  startTime */\n  0x01\n    /* \"contracts/3_Ballot.sol\":1117:1144  startTime = block.timestamp */\n  dup2\n  swap1\n  sstore\n  pop\n    /* \"contracts/3_Ballot.sol\":1160:1166  uint i */\n  0x00\n    /* \"contracts/3_Ballot.sol\":1155:1501  for (uint i = 0; i < proposalNames.length; i++) {... */\ntag_6:\n    /* \"contracts/3_Ballot.sol\":1176:1189  proposalNames */\n  dup2\n    /* \"contracts/3_Ballot.sol\":1176:1196  proposalNames.length */\n  mload\n    /* \"contracts/3_Ballot.sol\":1172:1173  i */\n  dup2\n    /* \"contracts/3_Ballot.sol\":1172:1196  i < proposalNames.length */\n  lt\n    /* \"contracts/3_Ballot.sol\":1155:1501  for (uint i = 0; i < proposalNames.length; i++) {... */\n  iszero\n  tag_7\n  jumpi\n    /* \"contracts/3_Ballot.sol\":1380:1389  proposals */\n  0x03\n    /* \"contracts/3_Ballot.sol\":1395:1489  Proposal({... */\n  mload(0x40)\n  dup1\n  0x40\n  add\n  0x40\n  mstore\n  dup1\n    /* \"contracts/3_Ballot.sol\":1428:1441  proposalNames */\n  dup5\n    /* \"contracts/3_Ballot.sol\":1442:1443  i */\n  dup5\n    /* \"contracts/3_Ballot.sol\":1428:1444  proposalNames[i] */\n  dup2\n  mload\n  dup2\n  lt\n  tag_9\n  jumpi\n  tag_10\n  tag_11\n  jump\t// in\ntag_10:\ntag_9:\n  0x20\n  mul\n  0x20\n  add\n  add\n  mload\n    /* \"contracts/3_Ballot.sol\":1395:1489  Proposal({... */\n  dup2\n  mstore\n  0x20\n  add\n    /* \"contracts/3_Ballot.sol\":1473:1474  0 */\n  0x00\n    /* \"contracts/3_Ballot.sol\":1395:1489  Proposal({... */\n  dup2\n  mstore\n  pop\n    /* \"contracts/3_Ballot.sol\":1380:1490  proposals.push(Proposal({... */\n  swap1\n  dup1\n  0x01\n  dup2\n  sload\n  add\n  dup1\n  dup3\n  sstore\n  dup1\n  swap2\n  pop\n  pop\n  0x01\n  swap1\n  sub\n  swap1\n  0x00\n  mstore\n  keccak256(0x00, 0x20)\n  swap1\n  0x02\n  mul\n  add\n  0x00\n  swap1\n  swap2\n  swap1\n  swap2\n  swap1\n  swap2\n  pop\n  0x00\n  dup3\n  add\n  mload\n  dup2\n  0x00\n  add\n  sstore\n  0x20\n  dup3\n  add\n  mload\n  dup2\n  0x01\n  add\n  sstore\n  pop\n  pop\n    /* \"contracts/3_Ballot.sol\":1198:1201  i++ */\n  dup1\n  dup1\n  tag_13\n  swap1\n  tag_14\n  jump\t// in\ntag_13:\n  swap2\n  pop\n  pop\n    /* \"contracts/3_Ballot.sol\":1155:1501  for (uint i = 0; i < proposalNames.length; i++) {... */\n  jump(tag_6)\ntag_7:\n  pop\n    /* \"contracts/3_Ballot.sol\":989:1507  constructor(bytes32[] memory proposalNames) {... */\n  pop\n    /* \"contracts/3_Ballot.sol\":157:4774  contract Ballot {... */\n  jump(tag_15)\n    /* \"#utility.yul\":7:82   */\ntag_16:\n    /* \"#utility.yul\":40:46   */\n  0x00\n    /* \"#utility.yul\":73:75   */\n  0x40\n    /* \"#utility.yul\":67:76   */\n  mload\n    /* \"#utility.yul\":57:76   */\n  swap1\n  pop\n    /* \"#utility.yul\":7:82   */\n  swap1\n  jump\t// out\n    /* \"#utility.yul\":88:205   */\ntag_17:\n    /* \"#utility.yul\":197:198   */\n  0x00\n    /* \"#utility.yul\":194:195   */\n  dup1\n    /* \"#utility.yul\":187:199   */\n  revert\n    /* \"#utility.yul\":211:328   */\ntag_18:\n    /* \"#utility.yul\":320:321   */\n  0x00\n    /* \"#utility.yul\":317:318   */\n  dup1\n    /* \"#utility.yul\":310:322   */\n  revert\n    /* \"#utility.yul\":334:451   */\ntag_19:\n    /* \"#utility.yul\":443:444   */\n  0x00\n    /* \"#utility.yul\":440:441   */\n  dup1\n    /* \"#utility.yul\":433:445   */\n  revert\n    /* \"#utility.yul\":457:559   */\ntag_20:\n    /* \"#utility.yul\":498:504   */\n  0x00\n    /* \"#utility.yul\":549:551   */\n  0x1f\n    /* \"#utility.yul\":545:552   */\n  not\n    /* \"#utility.yul\":540:542   */\n  0x1f\n    /* \"#utility.yul\":533:538   */\n  dup4\n    /* \"#utility.yul\":529:543   */\n  add\n    /* \"#utility.yul\":525:553   */\n  and\n    /* \"#utility.yul\":515:553   */\n  swap1\n  pop\n    /* \"#utility.yul\":457:559   */\n  swap2\n  swap1\n  pop\n  jump\t// out\n    /* \"#utility.yul\":565:745   */\ntag_21:\n    /* \"#utility.yul\":613:690   */\n  0x4e487b7100000000000000000000000000000000000000000000000000000000\n    /* \"#utility.yul\":610:611   */\n  0x00\n    /* \"#utility.yul\":603:691   */\n  mstore\n    /* \"#utility.yul\":710:714   */\n  0x41\n    /* \"#utility.yul\":707:708   */\n  0x04\n    /* \"#utility.yul\":700:715   */\n  mstore\n    /* \"#utility.yul\":734:738   */\n  0x24\n    /* \"#utility.yul\":731:732   */\n  0x00\n    /* \"#utility.yul\":724:739   */\n  revert\n    /* \"#utility.yul\":751:1032   */\ntag_22:\n    /* \"#utility.yul\":834:861   */\n  tag_41\n    /* \"#utility.yul\":856:860   */\n  dup3\n    /* \"#utility.yul\":834:861   */\n  tag_20\n  jump\t// in\ntag_41:\n    /* \"#utility.yul\":826:832   */\n  dup2\n    /* \"#utility.yul\":822:862   */\n  add\n    /* \"#utility.yul\":964:970   */\n  dup2\n    /* \"#utility.yul\":952:962   */\n  dup2\n    /* \"#utility.yul\":949:971   */\n  lt\n    /* \"#utility.yul\":928:946   */\n  0xffffffffffffffff\n    /* \"#utility.yul\":916:926   */\n  dup3\n    /* \"#utility.yul\":913:947   */\n  gt\n    /* \"#utility.yul\":910:972   */\n  or\n    /* \"#utility.yul\":907:995   */\n  iszero\n  tag_42\n  jumpi\n    /* \"#utility.yul\":975:993   */\n  tag_43\n  tag_21\n  jump\t// in\ntag_43:\n    /* \"#utility.yul\":907:995   */\ntag_42:\n    /* \"#utility.yul\":1015:1025   */\n  dup1\n    /* \"#utility.yul\":1011:1013   */\n  0x40\n    /* \"#utility.yul\":1004:1026   */\n  mstore\n    /* \"#utility.yul\":794:1032   */\n  pop\n    /* \"#utility.yul\":751:1032   */\n  pop\n  pop\n  jump\t// out\n    /* \"#utility.yul\":1038:1167   */\ntag_23:\n    /* \"#utility.yul\":1072:1078   */\n  0x00\n    /* \"#utility.yul\":1099:1119   */\n  tag_45\n  tag_16\n  jump\t// in\ntag_45:\n    /* \"#utility.yul\":1089:1119   */\n  swap1\n  pop\n    /* \"#utility.yul\":1128:1161   */\n  tag_46\n    /* \"#utility.yul\":1156:1160   */\n  dup3\n    /* \"#utility.yul\":1148:1154   */\n  dup3\n    /* \"#utility.yul\":1128:1161   */\n  tag_22\n  jump\t// in\ntag_46:\n    /* \"#utility.yul\":1038:1167   */\n  swap2\n  swap1\n  pop\n  jump\t// out\n    /* \"#utility.yul\":1173:1484   */\ntag_24:\n    /* \"#utility.yul\":1250:1254   */\n  0x00\n    /* \"#utility.yul\":1340:1358   */\n  0xffffffffffffffff\n    /* \"#utility.yul\":1332:1338   */\n  dup3\n    /* \"#utility.yul\":1329:1359   */\n  gt\n    /* \"#utility.yul\":1326:1382   */\n  iszero\n  tag_48\n  jumpi\n    /* \"#utility.yul\":1362:1380   */\n  tag_49\n  tag_21\n  jump\t// in\ntag_49:\n    /* \"#utility.yul\":1326:1382   */\ntag_48:\n    /* \"#utility.yul\":1412:1416   */\n  0x20\n    /* \"#utility.yul\":1404:1410   */\n  dup3\n    /* \"#utility.yul\":1400:1417   */\n  mul\n    /* \"#utility.yul\":1392:1417   */\n  swap1\n  pop\n    /* \"#utility.yul\":1472:1476   */\n  0x20\n    /* \"#utility.yul\":1466:1470   */\n  dup2\n    /* \"#utility.yul\":1462:1477   */\n  add\n    /* \"#utility.yul\":1454:1477   */\n  swap1\n  pop\n    /* \"#utility.yul\":1173:1484   */\n  swap2\n  swap1\n  pop\n  jump\t// out\n    /* \"#utility.yul\":1490:1607   */\ntag_25:\n    /* \"#utility.yul\":1599:1600   */\n  0x00\n    /* \"#utility.yul\":1596:1597   */\n  dup1\n    /* \"#utility.yul\":1589:1601   */\n  revert\n    /* \"#utility.yul\":1613:1690   */\ntag_26:\n    /* \"#utility.yul\":1650:1657   */\n  0x00\n    /* \"#utility.yul\":1679:1684   */\n  dup2\n    /* \"#utility.yul\":1668:1684   */\n  swap1\n  pop\n    /* \"#utility.yul\":1613:1690   */\n  swap2\n  swap1\n  pop\n  jump\t// out\n    /* \"#utility.yul\":1696:1818   */\ntag_27:\n    /* \"#utility.yul\":1769:1793   */\n  tag_53\n    /* \"#utility.yul\":1787:1792   */\n  dup2\n    /* \"#utility.yul\":1769:1793   */\n  tag_26\n  jump\t// in\ntag_53:\n    /* \"#utility.yul\":1762:1767   */\n  dup2\n    /* \"#utility.yul\":1759:1794   */\n  eq\n    /* \"#utility.yul\":1749:1812   */\n  tag_54\n  jumpi\n    /* \"#utility.yul\":1808:1809   */\n  0x00\n    /* \"#utility.yul\":1805:1806   */\n  dup1\n    /* \"#utility.yul\":1798:1810   */\n  revert\n    /* \"#utility.yul\":1749:1812   */\ntag_54:\n    /* \"#utility.yul\":1696:1818   */\n  pop\n  jump\t// out\n    /* \"#utility.yul\":1824:1967   */\ntag_28:\n    /* \"#utility.yul\":1881:1886   */\n  0x00\n    /* \"#utility.yul\":1912:1918   */\n  dup2\n    /* \"#utility.yul\":1906:1919   */\n  mload\n    /* \"#utility.yul\":1897:1919   */\n  swap1\n  pop\n    /* \"#utility.yul\":1928:1961   */\n  tag_56\n    /* \"#utility.yul\":1955:1960   */\n  dup2\n    /* \"#utility.yul\":1928:1961   */\n  tag_27\n  jump\t// in\ntag_56:\n    /* \"#utility.yul\":1824:1967   */\n  swap3\n  swap2\n  pop\n  pop\n  jump\t// out\n    /* \"#utility.yul\":1990:2722   */\ntag_29:\n    /* \"#utility.yul\":2097:2102   */\n  0x00\n    /* \"#utility.yul\":2122:2203   */\n  tag_58\n    /* \"#utility.yul\":2138:2202   */\n  tag_59\n    /* \"#utility.yul\":2195:2201   */\n  dup5\n    /* \"#utility.yul\":2138:2202   */\n  tag_24\n  jump\t// in\ntag_59:\n    /* \"#utility.yul\":2122:2203   */\n  tag_23\n  jump\t// in\ntag_58:\n    /* \"#utility.yul\":2113:2203   */\n  swap1\n  pop\n    /* \"#utility.yul\":2223:2228   */\n  dup1\n    /* \"#utility.yul\":2252:2258   */\n  dup4\n    /* \"#utility.yul\":2245:2250   */\n  dup3\n    /* \"#utility.yul\":2238:2259   */\n  mstore\n    /* \"#utility.yul\":2286:2290   */\n  0x20\n    /* \"#utility.yul\":2279:2284   */\n  dup3\n    /* \"#utility.yul\":2275:2291   */\n  add\n    /* \"#utility.yul\":2268:2291   */\n  swap1\n  pop\n    /* \"#utility.yul\":2339:2343   */\n  0x20\n    /* \"#utility.yul\":2331:2337   */\n  dup5\n    /* \"#utility.yul\":2327:2344   */\n  mul\n    /* \"#utility.yul\":2319:2325   */\n  dup4\n    /* \"#utility.yul\":2315:2345   */\n  add\n    /* \"#utility.yul\":2368:2371   */\n  dup6\n    /* \"#utility.yul\":2360:2366   */\n  dup2\n    /* \"#utility.yul\":2357:2372   */\n  gt\n    /* \"#utility.yul\":2354:2476   */\n  iszero\n  tag_60\n  jumpi\n    /* \"#utility.yul\":2387:2466   */\n  tag_61\n  tag_25\n  jump\t// in\ntag_61:\n    /* \"#utility.yul\":2354:2476   */\ntag_60:\n    /* \"#utility.yul\":2502:2508   */\n  dup4\n    /* \"#utility.yul\":2485:2716   */\ntag_62:\n    /* \"#utility.yul\":2519:2525   */\n  dup2\n    /* \"#utility.yul\":2514:2517   */\n  dup2\n    /* \"#utility.yul\":2511:2526   */\n  lt\n    /* \"#utility.yul\":2485:2716   */\n  iszero\n  tag_64\n  jumpi\n    /* \"#utility.yul\":2594:2597   */\n  dup1\n    /* \"#utility.yul\":2623:2671   */\n  tag_65\n    /* \"#utility.yul\":2667:2670   */\n  dup9\n    /* \"#utility.yul\":2655:2665   */\n  dup3\n    /* \"#utility.yul\":2623:2671   */\n  tag_28\n  jump\t// in\ntag_65:\n    /* \"#utility.yul\":2618:2621   */\n  dup5\n    /* \"#utility.yul\":2611:2672   */\n  mstore\n    /* \"#utility.yul\":2701:2705   */\n  0x20\n    /* \"#utility.yul\":2696:2699   */\n  dup5\n    /* \"#utility.yul\":2692:2706   */\n  add\n    /* \"#utility.yul\":2685:2706   */\n  swap4\n  pop\n    /* \"#utility.yul\":2561:2716   */\n  pop\n    /* \"#utility.yul\":2545:2549   */\n  0x20\n    /* \"#utility.yul\":2540:2543   */\n  dup2\n    /* \"#utility.yul\":2536:2550   */\n  add\n    /* \"#utility.yul\":2529:2550   */\n  swap1\n  pop\n    /* \"#utility.yul\":2485:2716   */\n  jump(tag_62)\ntag_64:\n    /* \"#utility.yul\":2489:2510   */\n  pop\n    /* \"#utility.yul\":2103:2722   */\n  pop\n  pop\n    /* \"#utility.yul\":1990:2722   */\n  swap4\n  swap3\n  pop\n  pop\n  pop\n  jump\t// out\n    /* \"#utility.yul\":2745:3130   */\ntag_30:\n    /* \"#utility.yul\":2827:2832   */\n  0x00\n    /* \"#utility.yul\":2876:2879   */\n  dup3\n    /* \"#utility.yul\":2869:2873   */\n  0x1f\n    /* \"#utility.yul\":2861:2867   */\n  dup4\n    /* \"#utility.yul\":2857:2874   */\n  add\n    /* \"#utility.yul\":2853:2880   */\n  slt\n    /* \"#utility.yul\":2843:2965   */\n  tag_67\n  jumpi\n    /* \"#utility.yul\":2884:2963   */\n  tag_68\n  tag_19\n  jump\t// in\ntag_68:\n    /* \"#utility.yul\":2843:2965   */\ntag_67:\n    /* \"#utility.yul\":2994:3000   */\n  dup2\n    /* \"#utility.yul\":2988:3001   */\n  mload\n    /* \"#utility.yul\":3019:3124   */\n  tag_69\n    /* \"#utility.yul\":3120:3123   */\n  dup5\n    /* \"#utility.yul\":3112:3118   */\n  dup3\n    /* \"#utility.yul\":3105:3109   */\n  0x20\n    /* \"#utility.yul\":3097:3103   */\n  dup7\n    /* \"#utility.yul\":3093:3110   */\n  add\n    /* \"#utility.yul\":3019:3124   */\n  tag_29\n  jump\t// in\ntag_69:\n    /* \"#utility.yul\":3010:3124   */\n  swap2\n  pop\n    /* \"#utility.yul\":2833:3130   */\n  pop\n    /* \"#utility.yul\":2745:3130   */\n  swap3\n  swap2\n  pop\n  pop\n  jump\t// out\n    /* \"#utility.yul\":3136:3690   */\ntag_3:\n    /* \"#utility.yul\":3231:3237   */\n  0x00\n    /* \"#utility.yul\":3280:3282   */\n  0x20\n    /* \"#utility.yul\":3268:3277   */\n  dup3\n    /* \"#utility.yul\":3259:3266   */\n  dup5\n    /* \"#utility.yul\":3255:3278   */\n  sub\n    /* \"#utility.yul\":3251:3283   */\n  slt\n    /* \"#utility.yul\":3248:3367   */\n  iszero\n  tag_71\n  jumpi\n    /* \"#utility.yul\":3286:3365   */\n  tag_72\n  tag_17\n  jump\t// in\ntag_72:\n    /* \"#utility.yul\":3248:3367   */\ntag_71:\n    /* \"#utility.yul\":3427:3428   */\n  0x00\n    /* \"#utility.yul\":3416:3425   */\n  dup3\n    /* \"#utility.yul\":3412:3429   */\n  add\n    /* \"#utility.yul\":3406:3430   */\n  mload\n    /* \"#utility.yul\":3457:3475   */\n  0xffffffffffffffff\n    /* \"#utility.yul\":3449:3455   */\n  dup2\n    /* \"#utility.yul\":3446:3476   */\n  gt\n    /* \"#utility.yul\":3443:3560   */\n  iszero\n  tag_73\n  jumpi\n    /* \"#utility.yul\":3479:3558   */\n  tag_74\n  tag_18\n  jump\t// in\ntag_74:\n    /* \"#utility.yul\":3443:3560   */\ntag_73:\n    /* \"#utility.yul\":3584:3673   */\n  tag_75\n    /* \"#utility.yul\":3665:3672   */\n  dup5\n    /* \"#utility.yul\":3656:3662   */\n  dup3\n    /* \"#utility.yul\":3645:3654   */\n  dup6\n    /* \"#utility.yul\":3641:3663   */\n  add\n    /* \"#utility.yul\":3584:3673   */\n  tag_30\n  jump\t// in\ntag_75:\n    /* \"#utility.yul\":3574:3673   */\n  swap2\n  pop\n    /* \"#utility.yul\":3377:3683   */\n  pop\n    /* \"#utility.yul\":3136:3690   */\n  swap3\n  swap2\n  pop\n  pop\n  jump\t// out\n    /* \"#utility.yul\":3696:3876   */\ntag_11:\n    /* \"#utility.yul\":3744:3821   */\n  0x4e487b7100000000000000000000000000000000000000000000000000000000\n    /* \"#utility.yul\":3741:3742   */\n  0x00\n    /* \"#utility.yul\":3734:3822   */\n  mstore\n    /* \"#utility.yul\":3841:3845   */\n  0x32\n    /* \"#utility.yul\":3838:3839   */\n  0x04\n    /* \"#utility.yul\":3831:3846   */\n  mstore\n    /* \"#utility.yul\":3865:3869   */\n  0x24\n    /* \"#utility.yul\":3862:3863   */\n  0x00\n    /* \"#utility.yul\":3855:3870   */\n  revert\n    /* \"#utility.yul\":3882:4062   */\ntag_31:\n    /* \"#utility.yul\":3930:4007   */\n  0x4e487b7100000000000000000000000000000000000000000000000000000000\n    /* \"#utility.yul\":3927:3928   */\n  0x00\n    /* \"#utility.yul\":3920:4008   */\n  mstore\n    /* \"#utility.yul\":4027:4031   */\n  0x11\n    /* \"#utility.yul\":4024:4025   */\n  0x04\n    /* \"#utility.yul\":4017:4032   */\n  mstore\n    /* \"#utility.yul\":4051:4055   */\n  0x24\n    /* \"#utility.yul\":4048:4049   */\n  0x00\n    /* \"#utility.yul\":4041:4056   */\n  revert\n    /* \"#utility.yul\":4068:4145   */\ntag_32:\n    /* \"#utility.yul\":4105:4112   */\n  0x00\n    /* \"#utility.yul\":4134:4139   */\n  dup2\n    /* \"#utility.yul\":4123:4139   */\n  swap1\n  pop\n    /* \"#utility.yul\":4068:4145   */\n  swap2\n  swap1\n  pop\n  jump\t// out\n    /* \"#utility.yul\":4151:4384   */\ntag_14:\n    /* \"#utility.yul\":4190:4193   */\n  0x00\n    /* \"#utility.yul\":4213:4237   */\n  tag_80\n    /* \"#utility.yul\":4231:4236   */\n  dup3\n    /* \"#utility.yul\":4213:4237   */\n  tag_32\n  jump\t// in\ntag_80:\n    /* \"#utility.yul\":4204:4237   */\n  swap2\n  pop\n    /* \"#utility.yul\":4259:4325   */\n  0xffffffffffffffffffffffffffffffffffffffffffffffffffffffffffffffff\n    /* \"#utility.yul\":4252:4257   */\n  dup3\n    /* \"#utility.yul\":4249:4326   */\n  sub\n    /* \"#utility.yul\":4246:4349   */\n  tag_81\n  jumpi\n    /* \"#utility.yul\":4329:4347   */\n  tag_82\n  tag_31\n  jump\t// in\ntag_82:\n    /* \"#utility.yul\":4246:4349   */\ntag_81:\n    /* \"#utility.yul\":4376:4377   */\n  0x01\n    /* \"#utility.yul\":4369:4374   */\n  dup3\n    /* \"#utility.yul\":4365:4378   */\n  add\n    /* \"#utility.yul\":4358:4378   */\n  swap1\n  pop\n    /* \"#utility.yul\":4151:4384   */\n  swap2\n  swap1\n  pop\n  jump\t// out\n    /* \"contracts/3_Ballot.sol\":157:4774  contract Ballot {... */\ntag_15:\n  dataSize(sub_0)\n  dup1\n  dataOffset(sub_0)\n  0x00\n  codecopy\n  0x00\n  return\nstop\n\nsub_0: assembly {\n        /* \"contracts/3_Ballot.sol\":157:4774  contract Ballot {... */\n      mstore(0x40, 0x80)\n      callvalue\n      dup1\n      iszero\n      tag_1\n      jumpi\n      0x00\n      dup1\n      revert\n    tag_1:\n      pop\n      jumpi(tag_2, lt(calldatasize, 0x04))\n      shr(0xe0, calldataload(0x00))\n      dup1\n      0x609ff1bd\n      gt\n      tag_12\n      jumpi\n      dup1\n      0x609ff1bd\n      eq\n      tag_7\n      jumpi\n      dup1\n      0x78e97925\n      eq\n      tag_8\n      jumpi\n      dup1\n      0x9e7b8d61\n      eq\n      tag_9\n      jumpi\n      dup1\n      0xa3ec138d\n      eq\n      tag_10\n      jumpi\n      dup1\n      0xe2ba53f0\n      eq\n      tag_11\n      jumpi\n      jump(tag_2)\n    tag_12:\n      dup1\n      0x0121b93f\n      eq\n      tag_3\n      jumpi\n      dup1\n      0x013cf08b\n      eq\n      tag_4\n      jumpi\n      dup1\n      0x2e4176cf\n      eq\n      tag_5\n      jumpi\n      dup1\n      0x5c19a95c\n      eq\n      tag_6\n      jumpi\n    tag_2:\n      0x00\n      dup1\n      revert\n        /* \"contracts/3_Ballot.sol\":3418:3886  function vote(uint proposal) public voteEnded {... */\n    tag_3:\n      tag_13\n      0x04\n      dup1\n      calldatasize\n      sub\n      dup2\n      add\n      swap1\n      tag_14\n      swap2\n      swap1\n      tag_15\n      jump\t// in\n    tag_14:\n      tag_16\n      jump\t// in\n    tag_13:\n      stop\n        /* \"contracts/3_Ballot.sol\":825:852  Proposal[] public proposals */\n    tag_4:\n      tag_17\n      0x04\n      dup1\n      calldatasize\n      sub\n      dup2\n      add\n      swap1\n      tag_18\n      swap2\n      swap1\n      tag_15\n      jump\t// in\n    tag_18:\n      tag_19\n      jump\t// in\n    tag_17:\n      mload(0x40)\n      tag_20\n      swap3\n      swap2\n      swap1\n      tag_21\n      jump\t// in\n    tag_20:\n      mload(0x40)\n      dup1\n      swap2\n      sub\n      swap1\n      return\n        /* \"contracts/3_Ballot.sol\":715:741  address public chairperson */\n    tag_5:\n      tag_22\n      tag_23\n      jump\t// in\n    tag_22:\n      mload(0x40)\n      tag_24\n      swap2\n      swap1\n      tag_25\n      jump\t// in\n    tag_24:\n      mload(0x40)\n      dup1\n      swap2\n      sub\n      swap1\n      return\n        /* \"contracts/3_Ballot.sol\":2323:3230  function delegate(address to) public {... */\n    tag_6:\n      tag_26\n      0x04\n      dup1\n      calldatasize\n      sub\n      dup2\n      add\n      swap1\n      tag_27\n      swap2\n      swap1\n      tag_28\n      jump\t// in\n    tag_27:\n      tag_29\n      jump\t// in\n    tag_26:\n      stop\n        /* \"contracts/3_Ballot.sol\":4072:4437  function winningProposal() public view... */\n    tag_7:\n      tag_30\n      tag_31\n      jump\t// in\n    tag_30:\n      mload(0x40)\n      tag_32\n      swap2\n      swap1\n      tag_33\n      jump\t// in\n    tag_32:\n      mload(0x40)\n      dup1\n      swap2\n      sub\n      swap1\n      return\n        /* \"contracts/3_Ballot.sol\":748:772  uint256 public startTime */\n    tag_8:\n      tag_34\n      tag_35\n      jump\t// in\n    tag_34:\n      mload(0x40)\n      tag_36\n      swap2\n      swap1\n      tag_33\n      jump\t// in\n    tag_36:\n      mload(0x40)\n      dup1\n      swap2\n      sub\n      swap1\n      return\n        /* \"contracts/3_Ballot.sol\":1844:2199  function giveRightToVote(address voter) public {... */\n    tag_9:\n      tag_37\n      0x04\n      dup1\n      calldatasize\n      sub\n      dup2\n      add\n      swap1\n      tag_38\n      swap2\n      swap1\n      tag_28\n      jump\t// in\n    tag_38:\n      tag_39\n      jump\t// in\n    tag_37:\n      stop\n        /* \"contracts/3_Ballot.sol\":779:818  mapping(address => Voter) public voters */\n    tag_10:\n      tag_40\n      0x04\n      dup1\n      calldatasize\n      sub\n      dup2\n      add\n      swap1\n      tag_41\n      swap2\n      swap1\n      tag_28\n      jump\t// in\n    tag_41:\n      tag_42\n      jump\t// in\n    tag_40:\n      mload(0x40)\n      tag_43\n      swap5\n      swap4\n      swap3\n      swap2\n      swap1\n      tag_44\n      jump\t// in\n    tag_43:\n      mload(0x40)\n      dup1\n      swap2\n      sub\n      swap1\n      return\n        /* \"contracts/3_Ballot.sol\":4628:4772  function winnerName() public view... */\n    tag_11:\n      tag_45\n      tag_46\n      jump\t// in\n    tag_45:\n      mload(0x40)\n      tag_47\n      swap2\n      swap1\n      tag_48\n      jump\t// in\n    tag_47:\n      mload(0x40)\n      dup1\n      swap2\n      sub\n      swap1\n      return\n        /* \"contracts/3_Ballot.sol\":3418:3886  function vote(uint proposal) public voteEnded {... */\n    tag_16:\n        /* \"contracts/3_Ballot.sol\":1654:1663  5 minutes */\n      0x012c\n        /* \"contracts/3_Ballot.sol\":1642:1651  startTime */\n      sload(0x01)\n        /* \"contracts/3_Ballot.sol\":1642:1663  startTime + 5 minutes */\n      tag_50\n      swap2\n      swap1\n      tag_51\n      jump\t// in\n    tag_50:\n        /* \"contracts/3_Ballot.sol\":1623:1638  block.timestamp */\n      timestamp\n        /* \"contracts/3_Ballot.sol\":1623:1664  block.timestamp < (startTime + 5 minutes) */\n      lt\n        /* \"contracts/3_Ballot.sol\":1615:1665  require(block.timestamp < (startTime + 5 minutes)) */\n      tag_52\n      jumpi\n      0x00\n      dup1\n      revert\n    tag_52:\n        /* \"contracts/3_Ballot.sol\":3474:3494  Voter storage sender */\n      0x00\n        /* \"contracts/3_Ballot.sol\":3497:3503  voters */\n      0x02\n        /* \"contracts/3_Ballot.sol\":3497:3515  voters[msg.sender] */\n      0x00\n        /* \"contracts/3_Ballot.sol\":3504:3514  msg.sender */\n      caller\n        /* \"contracts/3_Ballot.sol\":3497:3515  voters[msg.sender] */\n      0xffffffffffffffffffffffffffffffffffffffff\n      and\n      0xffffffffffffffffffffffffffffffffffffffff\n      and\n      dup2\n      mstore\n      0x20\n      add\n      swap1\n      dup2\n      mstore\n      0x20\n      add\n      0x00\n      keccak256\n        /* \"contracts/3_Ballot.sol\":3474:3515  Voter storage sender = voters[msg.sender] */\n      swap1\n      pop\n        /* \"contracts/3_Ballot.sol\":3550:3551  0 */\n      0x00\n        /* \"contracts/3_Ballot.sol\":3533:3539  sender */\n      dup2\n        /* \"contracts/3_Ballot.sol\":3533:3546  sender.weight */\n      0x00\n      add\n      sload\n        /* \"contracts/3_Ballot.sol\":3533:3551  sender.weight != 0 */\n      sub\n        /* \"contracts/3_Ballot.sol\":3525:3576  require(sender.weight != 0, \"Has no right to vote\") */\n      tag_54\n      jumpi\n      mload(0x40)\n      0x08c379a000000000000000000000000000000000000000000000000000000000\n      dup2\n      mstore\n      0x04\n      add\n      tag_55\n      swap1\n      tag_56\n      jump\t// in\n    tag_55:\n      mload(0x40)\n      dup1\n      swap2\n      sub\n      swap1\n      revert\n    tag_54:\n        /* \"contracts/3_Ballot.sol\":3595:3601  sender */\n      dup1\n        /* \"contracts/3_Ballot.sol\":3595:3607  sender.voted */\n      0x01\n      add\n      0x00\n      swap1\n      sload\n      swap1\n      0x0100\n      exp\n      swap1\n      div\n      0xff\n      and\n        /* \"contracts/3_Ballot.sol\":3594:3607  !sender.voted */\n      iszero\n        /* \"contracts/3_Ballot.sol\":3586:3626  require(!sender.voted, \"Already voted.\") */\n      tag_57\n      jumpi\n      mload(0x40)\n      0x08c379a000000000000000000000000000000000000000000000000000000000\n      dup2\n      mstore\n      0x04\n      add\n      tag_58\n      swap1\n      tag_59\n      jump\t// in\n    tag_58:\n      mload(0x40)\n      dup1\n      swap2\n      sub\n      swap1\n      revert\n    tag_57:\n        /* \"contracts/3_Ballot.sol\":3651:3655  true */\n      0x01\n        /* \"contracts/3_Ballot.sol\":3636:3642  sender */\n      dup2\n        /* \"contracts/3_Ballot.sol\":3636:3648  sender.voted */\n      0x01\n      add\n      0x00\n        /* \"contracts/3_Ballot.sol\":3636:3655  sender.voted = true */\n      0x0100\n      exp\n      dup2\n      sload\n      dup2\n      0xff\n      mul\n      not\n      and\n      swap1\n      dup4\n      iszero\n      iszero\n      mul\n      or\n      swap1\n      sstore\n      pop\n        /* \"contracts/3_Ballot.sol\":3679:3687  proposal */\n      dup2\n        /* \"contracts/3_Ballot.sol\":3665:3671  sender */\n      dup2\n        /* \"contracts/3_Ballot.sol\":3665:3676  sender.vote */\n      0x02\n      add\n        /* \"contracts/3_Ballot.sol\":3665:3687  sender.vote = proposal */\n      dup2\n      swap1\n      sstore\n      pop\n        /* \"contracts/3_Ballot.sol\":3866:3872  sender */\n      dup1\n        /* \"contracts/3_Ballot.sol\":3866:3879  sender.weight */\n      0x00\n      add\n      sload\n        /* \"contracts/3_Ballot.sol\":3833:3842  proposals */\n      0x03\n        /* \"contracts/3_Ballot.sol\":3843:3851  proposal */\n      dup4\n        /* \"contracts/3_Ballot.sol\":3833:3852  proposals[proposal] */\n      dup2\n      sload\n      dup2\n      lt\n      tag_60\n      jumpi\n      tag_61\n      tag_62\n      jump\t// in\n    tag_61:\n    tag_60:\n      swap1\n      0x00\n      mstore\n      keccak256(0x00, 0x20)\n      swap1\n      0x02\n      mul\n      add\n        /* \"contracts/3_Ballot.sol\":3833:3862  proposals[proposal].voteCount */\n      0x01\n      add\n      0x00\n        /* \"contracts/3_Ballot.sol\":3833:3879  proposals[proposal].voteCount += sender.weight */\n      dup3\n      dup3\n      sload\n      tag_64\n      swap2\n      swap1\n      tag_51\n      jump\t// in\n    tag_64:\n      swap3\n      pop\n      pop\n      dup2\n      swap1\n      sstore\n      pop\n        /* \"contracts/3_Ballot.sol\":3464:3886  {... */\n      pop\n        /* \"contracts/3_Ballot.sol\":3418:3886  function vote(uint proposal) public voteEnded {... */\n      pop\n      jump\t// out\n        /* \"contracts/3_Ballot.sol\":825:852  Proposal[] public proposals */\n    tag_19:\n      0x03\n      dup2\n      dup2\n      sload\n      dup2\n      lt\n      tag_65\n      jumpi\n      0x00\n      dup1\n      revert\n    tag_65:\n      swap1\n      0x00\n      mstore\n      keccak256(0x00, 0x20)\n      swap1\n      0x02\n      mul\n      add\n      0x00\n      swap2\n      pop\n      swap1\n      pop\n      dup1\n      0x00\n      add\n      sload\n      swap1\n      dup1\n      0x01\n      add\n      sload\n      swap1\n      pop\n      dup3\n      jump\t// out\n        /* \"contracts/3_Ballot.sol\":715:741  address public chairperson */\n    tag_23:\n      0x00\n      dup1\n      sload\n      swap1\n      0x0100\n      exp\n      swap1\n      div\n      0xffffffffffffffffffffffffffffffffffffffff\n      and\n      dup2\n      jump\t// out\n        /* \"contracts/3_Ballot.sol\":2323:3230  function delegate(address to) public {... */\n    tag_29:\n        /* \"contracts/3_Ballot.sol\":2370:2390  Voter storage sender */\n      0x00\n        /* \"contracts/3_Ballot.sol\":2393:2399  voters */\n      0x02\n        /* \"contracts/3_Ballot.sol\":2393:2411  voters[msg.sender] */\n      0x00\n        /* \"contracts/3_Ballot.sol\":2400:2410  msg.sender */\n      caller\n        /* \"contracts/3_Ballot.sol\":2393:2411  voters[msg.sender] */\n      0xffffffffffffffffffffffffffffffffffffffff\n      and\n      0xffffffffffffffffffffffffffffffffffffffff\n      and\n      dup2\n      mstore\n      0x20\n      add\n      swap1\n      dup2\n      mstore\n      0x20\n      add\n      0x00\n      keccak256\n        /* \"contracts/3_Ballot.sol\":2370:2411  Voter storage sender = voters[msg.sender] */\n      swap1\n      pop\n        /* \"contracts/3_Ballot.sol\":2430:2436  sender */\n      dup1\n        /* \"contracts/3_Ballot.sol\":2430:2442  sender.voted */\n      0x01\n      add\n      0x00\n      swap1\n      sload\n      swap1\n      0x0100\n      exp\n      swap1\n      div\n      0xff\n      and\n        /* \"contracts/3_Ballot.sol\":2429:2442  !sender.voted */\n      iszero\n        /* \"contracts/3_Ballot.sol\":2421:2465  require(!sender.voted, \"You already voted.\") */\n      tag_68\n      jumpi\n      mload(0x40)\n      0x08c379a000000000000000000000000000000000000000000000000000000000\n      dup2\n      mstore\n      0x04\n      add\n      tag_69\n      swap1\n      tag_70\n      jump\t// in\n    tag_69:\n      mload(0x40)\n      dup1\n      swap2\n      sub\n      swap1\n      revert\n    tag_68:\n        /* \"contracts/3_Ballot.sol\":2489:2499  msg.sender */\n      caller\n        /* \"contracts/3_Ballot.sol\":2483:2499  to != msg.sender */\n      0xffffffffffffffffffffffffffffffffffffffff\n      and\n        /* \"contracts/3_Ballot.sol\":2483:2485  to */\n      dup3\n        /* \"contracts/3_Ballot.sol\":2483:2499  to != msg.sender */\n      0xffffffffffffffffffffffffffffffffffffffff\n      and\n      sub\n        /* \"contracts/3_Ballot.sol\":2475:2534  require(to != msg.sender, \"Self-delegation is disallowed.\") */\n      tag_71\n      jumpi\n      mload(0x40)\n      0x08c379a000000000000000000000000000000000000000000000000000000000\n      dup2\n      mstore\n      0x04\n      add\n      tag_72\n      swap1\n      tag_73\n      jump\t// in\n    tag_72:\n      mload(0x40)\n      dup1\n      swap2\n      sub\n      swap1\n      revert\n    tag_71:\n        /* \"contracts/3_Ballot.sol\":2545:2768  while (voters[to].delegate != address(0)) {... */\n    tag_74:\n        /* \"contracts/3_Ballot.sol\":2583:2584  0 */\n      0x00\n        /* \"contracts/3_Ballot.sol\":2552:2585  voters[to].delegate != address(0) */\n      0xffffffffffffffffffffffffffffffffffffffff\n      and\n        /* \"contracts/3_Ballot.sol\":2552:2558  voters */\n      0x02\n        /* \"contracts/3_Ballot.sol\":2552:2562  voters[to] */\n      0x00\n        /* \"contracts/3_Ballot.sol\":2559:2561  to */\n      dup5\n        /* \"contracts/3_Ballot.sol\":2552:2562  voters[to] */\n      0xffffffffffffffffffffffffffffffffffffffff\n      and\n      0xffffffffffffffffffffffffffffffffffffffff\n      and\n      dup2\n      mstore\n      0x20\n      add\n      swap1\n      dup2\n      mstore\n      0x20\n      add\n      0x00\n      keccak256\n        /* \"contracts/3_Ballot.sol\":2552:2571  voters[to].delegate */\n      0x01\n      add\n      0x01\n      swap1\n      sload\n      swap1\n      0x0100\n      exp\n      swap1\n      div\n      0xffffffffffffffffffffffffffffffffffffffff\n      and\n        /* \"contracts/3_Ballot.sol\":2552:2585  voters[to].delegate != address(0) */\n      0xffffffffffffffffffffffffffffffffffffffff\n      and\n      eq\n        /* \"contracts/3_Ballot.sol\":2545:2768  while (voters[to].delegate != address(0)) {... */\n      tag_75\n      jumpi\n        /* \"contracts/3_Ballot.sol\":2606:2612  voters */\n      0x02\n        /* \"contracts/3_Ballot.sol\":2606:2616  voters[to] */\n      0x00\n        /* \"contracts/3_Ballot.sol\":2613:2615  to */\n      dup4\n        /* \"contracts/3_Ballot.sol\":2606:2616  voters[to] */\n      0xffffffffffffffffffffffffffffffffffffffff\n      and\n      0xffffffffffffffffffffffffffffffffffffffff\n      and\n      dup2\n      mstore\n      0x20\n      add\n      swap1\n      dup2\n      mstore\n      0x20\n      add\n      0x00\n      keccak256\n        /* \"contracts/3_Ballot.sol\":2606:2625  voters[to].delegate */\n      0x01\n      add\n      0x01\n      swap1\n      sload\n      swap1\n      0x0100\n      exp\n      swap1\n      div\n      0xffffffffffffffffffffffffffffffffffffffff\n      and\n        /* \"contracts/3_Ballot.sol\":2601:2625  to = voters[to].delegate */\n      swap2\n      pop\n        /* \"contracts/3_Ballot.sol\":2717:2727  msg.sender */\n      caller\n        /* \"contracts/3_Ballot.sol\":2711:2727  to != msg.sender */\n      0xffffffffffffffffffffffffffffffffffffffff\n      and\n        /* \"contracts/3_Ballot.sol\":2711:2713  to */\n      dup3\n        /* \"contracts/3_Ballot.sol\":2711:2727  to != msg.sender */\n      0xffffffffffffffffffffffffffffffffffffffff\n      and\n      sub\n        /* \"contracts/3_Ballot.sol\":2703:2757  require(to != msg.sender, \"Found loop in delegation.\") */\n      tag_76\n      jumpi\n      mload(0x40)\n      0x08c379a000000000000000000000000000000000000000000000000000000000\n      dup2\n      mstore\n      0x04\n      add\n      tag_77\n      swap1\n      tag_78\n      jump\t// in\n    tag_77:\n      mload(0x40)\n      dup1\n      swap2\n      sub\n      swap1\n      revert\n    tag_76:\n        /* \"contracts/3_Ballot.sol\":2545:2768  while (voters[to].delegate != address(0)) {... */\n      jump(tag_74)\n    tag_75:\n        /* \"contracts/3_Ballot.sol\":2792:2796  true */\n      0x01\n        /* \"contracts/3_Ballot.sol\":2777:2783  sender */\n      dup2\n        /* \"contracts/3_Ballot.sol\":2777:2789  sender.voted */\n      0x01\n      add\n      0x00\n        /* \"contracts/3_Ballot.sol\":2777:2796  sender.voted = true */\n      0x0100\n      exp\n      dup2\n      sload\n      dup2\n      0xff\n      mul\n      not\n      and\n      swap1\n      dup4\n      iszero\n      iszero\n      mul\n      or\n      swap1\n      sstore\n      pop\n        /* \"contracts/3_Ballot.sol\":2824:2826  to */\n      dup2\n        /* \"contracts/3_Ballot.sol\":2806:2812  sender */\n      dup2\n        /* \"contracts/3_Ballot.sol\":2806:2821  sender.delegate */\n      0x01\n      add\n      0x01\n        /* \"contracts/3_Ballot.sol\":2806:2826  sender.delegate = to */\n      0x0100\n      exp\n      dup2\n      sload\n      dup2\n      0xffffffffffffffffffffffffffffffffffffffff\n      mul\n      not\n      and\n      swap1\n      dup4\n      0xffffffffffffffffffffffffffffffffffffffff\n      and\n      mul\n      or\n      swap1\n      sstore\n      pop\n        /* \"contracts/3_Ballot.sol\":2836:2859  Voter storage delegate_ */\n      0x00\n        /* \"contracts/3_Ballot.sol\":2862:2868  voters */\n      0x02\n        /* \"contracts/3_Ballot.sol\":2862:2872  voters[to] */\n      0x00\n        /* \"contracts/3_Ballot.sol\":2869:2871  to */\n      dup5\n        /* \"contracts/3_Ballot.sol\":2862:2872  voters[to] */\n      0xffffffffffffffffffffffffffffffffffffffff\n      and\n      0xffffffffffffffffffffffffffffffffffffffff\n      and\n      dup2\n      mstore\n      0x20\n      add\n      swap1\n      dup2\n      mstore\n      0x20\n      add\n      0x00\n      keccak256\n        /* \"contracts/3_Ballot.sol\":2836:2872  Voter storage delegate_ = voters[to] */\n      swap1\n      pop\n        /* \"contracts/3_Ballot.sol\":2886:2895  delegate_ */\n      dup1\n        /* \"contracts/3_Ballot.sol\":2886:2901  delegate_.voted */\n      0x01\n      add\n      0x00\n      swap1\n      sload\n      swap1\n      0x0100\n      exp\n      swap1\n      div\n      0xff\n      and\n        /* \"contracts/3_Ballot.sol\":2882:3224  if (delegate_.voted) {... */\n      iszero\n      tag_79\n      jumpi\n        /* \"contracts/3_Ballot.sol\":3053:3059  sender */\n      dup2\n        /* \"contracts/3_Ballot.sol\":3053:3066  sender.weight */\n      0x00\n      add\n      sload\n        /* \"contracts/3_Ballot.sol\":3014:3023  proposals */\n      0x03\n        /* \"contracts/3_Ballot.sol\":3024:3033  delegate_ */\n      dup3\n        /* \"contracts/3_Ballot.sol\":3024:3038  delegate_.vote */\n      0x02\n      add\n      sload\n        /* \"contracts/3_Ballot.sol\":3014:3039  proposals[delegate_.vote] */\n      dup2\n      sload\n      dup2\n      lt\n      tag_80\n      jumpi\n      tag_81\n      tag_62\n      jump\t// in\n    tag_81:\n    tag_80:\n      swap1\n      0x00\n      mstore\n      keccak256(0x00, 0x20)\n      swap1\n      0x02\n      mul\n      add\n        /* \"contracts/3_Ballot.sol\":3014:3049  proposals[delegate_.vote].voteCount */\n      0x01\n      add\n      0x00\n        /* \"contracts/3_Ballot.sol\":3014:3066  proposals[delegate_.vote].voteCount += sender.weight */\n      dup3\n      dup3\n      sload\n      tag_83\n      swap2\n      swap1\n      tag_51\n      jump\t// in\n    tag_83:\n      swap3\n      pop\n      pop\n      dup2\n      swap1\n      sstore\n      pop\n        /* \"contracts/3_Ballot.sol\":2882:3224  if (delegate_.voted) {... */\n      jump(tag_84)\n    tag_79:\n        /* \"contracts/3_Ballot.sol\":3200:3206  sender */\n      dup2\n        /* \"contracts/3_Ballot.sol\":3200:3213  sender.weight */\n      0x00\n      add\n      sload\n        /* \"contracts/3_Ballot.sol\":3180:3189  delegate_ */\n      dup2\n        /* \"contracts/3_Ballot.sol\":3180:3196  delegate_.weight */\n      0x00\n      add\n      0x00\n        /* \"contracts/3_Ballot.sol\":3180:3213  delegate_.weight += sender.weight */\n      dup3\n      dup3\n      sload\n      tag_85\n      swap2\n      swap1\n      tag_51\n      jump\t// in\n    tag_85:\n      swap3\n      pop\n      pop\n      dup2\n      swap1\n      sstore\n      pop\n        /* \"contracts/3_Ballot.sol\":2882:3224  if (delegate_.voted) {... */\n    tag_84:\n        /* \"contracts/3_Ballot.sol\":2360:3230  {... */\n      pop\n      pop\n        /* \"contracts/3_Ballot.sol\":2323:3230  function delegate(address to) public {... */\n      pop\n      jump\t// out\n        /* \"contracts/3_Ballot.sol\":4072:4437  function winningProposal() public view... */\n    tag_31:\n        /* \"contracts/3_Ballot.sol\":4132:4153  uint winningProposal_ */\n      0x00\n        /* \"contracts/3_Ballot.sol\":4169:4190  uint winningVoteCount */\n      dup1\n        /* \"contracts/3_Ballot.sol\":4193:4194  0 */\n      0x00\n        /* \"contracts/3_Ballot.sol\":4169:4194  uint winningVoteCount = 0 */\n      swap1\n      pop\n        /* \"contracts/3_Ballot.sol\":4209:4215  uint p */\n      0x00\n        /* \"contracts/3_Ballot.sol\":4204:4431  for (uint p = 0; p < proposals.length; p++) {... */\n    tag_87:\n        /* \"contracts/3_Ballot.sol\":4225:4234  proposals */\n      0x03\n        /* \"contracts/3_Ballot.sol\":4225:4241  proposals.length */\n      dup1\n      sload\n      swap1\n      pop\n        /* \"contracts/3_Ballot.sol\":4221:4222  p */\n      dup2\n        /* \"contracts/3_Ballot.sol\":4221:4241  p < proposals.length */\n      lt\n        /* \"contracts/3_Ballot.sol\":4204:4431  for (uint p = 0; p < proposals.length; p++) {... */\n      iszero\n      tag_88\n      jumpi\n        /* \"contracts/3_Ballot.sol\":4291:4307  winningVoteCount */\n      dup2\n        /* \"contracts/3_Ballot.sol\":4266:4275  proposals */\n      0x03\n        /* \"contracts/3_Ballot.sol\":4276:4277  p */\n      dup3\n        /* \"contracts/3_Ballot.sol\":4266:4278  proposals[p] */\n      dup2\n      sload\n      dup2\n      lt\n      tag_90\n      jumpi\n      tag_91\n      tag_62\n      jump\t// in\n    tag_91:\n    tag_90:\n      swap1\n      0x00\n      mstore\n      keccak256(0x00, 0x20)\n      swap1\n      0x02\n      mul\n      add\n        /* \"contracts/3_Ballot.sol\":4266:4288  proposals[p].voteCount */\n      0x01\n      add\n      sload\n        /* \"contracts/3_Ballot.sol\":4266:4307  proposals[p].voteCount > winningVoteCount */\n      gt\n        /* \"contracts/3_Ballot.sol\":4262:4421  if (proposals[p].voteCount > winningVoteCount) {... */\n      iszero\n      tag_93\n      jumpi\n        /* \"contracts/3_Ballot.sol\":4346:4355  proposals */\n      0x03\n        /* \"contracts/3_Ballot.sol\":4356:4357  p */\n      dup2\n        /* \"contracts/3_Ballot.sol\":4346:4358  proposals[p] */\n      dup2\n      sload\n      dup2\n      lt\n      tag_94\n      jumpi\n      tag_95\n      tag_62\n      jump\t// in\n    tag_95:\n    tag_94:\n      swap1\n      0x00\n      mstore\n      keccak256(0x00, 0x20)\n      swap1\n      0x02\n      mul\n      add\n        /* \"contracts/3_Ballot.sol\":4346:4368  proposals[p].voteCount */\n      0x01\n      add\n      sload\n        /* \"contracts/3_Ballot.sol\":4327:4368  winningVoteCount = proposals[p].voteCount */\n      swap2\n      pop\n        /* \"contracts/3_Ballot.sol\":4405:4406  p */\n      dup1\n        /* \"contracts/3_Ballot.sol\":4386:4406  winningProposal_ = p */\n      swap3\n      pop\n        /* \"contracts/3_Ballot.sol\":4262:4421  if (proposals[p].voteCount > winningVoteCount) {... */\n    tag_93:\n        /* \"contracts/3_Ballot.sol\":4243:4246  p++ */\n      dup1\n      dup1\n      tag_97\n      swap1\n      tag_98\n      jump\t// in\n    tag_97:\n      swap2\n      pop\n      pop\n        /* \"contracts/3_Ballot.sol\":4204:4431  for (uint p = 0; p < proposals.length; p++) {... */\n      jump(tag_87)\n    tag_88:\n      pop\n        /* \"contracts/3_Ballot.sol\":4159:4437  {... */\n      pop\n        /* \"contracts/3_Ballot.sol\":4072:4437  function winningProposal() public view... */\n      swap1\n      jump\t// out\n        /* \"contracts/3_Ballot.sol\":748:772  uint256 public startTime */\n    tag_35:\n      sload(0x01)\n      dup2\n      jump\t// out\n        /* \"contracts/3_Ballot.sol\":1844:2199  function giveRightToVote(address voter) public {... */\n    tag_39:\n        /* \"contracts/3_Ballot.sol\":1936:1947  chairperson */\n      0x00\n      dup1\n      sload\n      swap1\n      0x0100\n      exp\n      swap1\n      div\n      0xffffffffffffffffffffffffffffffffffffffff\n      and\n        /* \"contracts/3_Ballot.sol\":1922:1947  msg.sender == chairperson */\n      0xffffffffffffffffffffffffffffffffffffffff\n      and\n        /* \"contracts/3_Ballot.sol\":1922:1932  msg.sender */\n      caller\n        /* \"contracts/3_Ballot.sol\":1922:1947  msg.sender == chairperson */\n      0xffffffffffffffffffffffffffffffffffffffff\n      and\n      eq\n        /* \"contracts/3_Ballot.sol\":1901:2013  require(... */\n      tag_100\n      jumpi\n      mload(0x40)\n      0x08c379a000000000000000000000000000000000000000000000000000000000\n      dup2\n      mstore\n      0x04\n      add\n      tag_101\n      swap1\n      tag_102\n      jump\t// in\n    tag_101:\n      mload(0x40)\n      dup1\n      swap2\n      sub\n      swap1\n      revert\n    tag_100:\n        /* \"contracts/3_Ballot.sol\":2045:2051  voters */\n      0x02\n        /* \"contracts/3_Ballot.sol\":2045:2058  voters[voter] */\n      0x00\n        /* \"contracts/3_Ballot.sol\":2052:2057  voter */\n      dup3\n        /* \"contracts/3_Ballot.sol\":2045:2058  voters[voter] */\n      0xffffffffffffffffffffffffffffffffffffffff\n      and\n      0xffffffffffffffffffffffffffffffffffffffff\n      and\n      dup2\n      mstore\n      0x20\n      add\n      swap1\n      dup2\n      mstore\n      0x20\n      add\n      0x00\n      keccak256\n        /* \"contracts/3_Ballot.sol\":2045:2064  voters[voter].voted */\n      0x01\n      add\n      0x00\n      swap1\n      sload\n      swap1\n      0x0100\n      exp\n      swap1\n      div\n      0xff\n      and\n        /* \"contracts/3_Ballot.sol\":2044:2064  !voters[voter].voted */\n      iszero\n        /* \"contracts/3_Ballot.sol\":2023:2114  require(... */\n      tag_103\n      jumpi\n      mload(0x40)\n      0x08c379a000000000000000000000000000000000000000000000000000000000\n      dup2\n      mstore\n      0x04\n      add\n      tag_104\n      swap1\n      tag_105\n      jump\t// in\n    tag_104:\n      mload(0x40)\n      dup1\n      swap2\n      sub\n      swap1\n      revert\n    tag_103:\n        /* \"contracts/3_Ballot.sol\":2156:2157  0 */\n      0x00\n        /* \"contracts/3_Ballot.sol\":2132:2138  voters */\n      0x02\n        /* \"contracts/3_Ballot.sol\":2132:2145  voters[voter] */\n      0x00\n        /* \"contracts/3_Ballot.sol\":2139:2144  voter */\n      dup4\n        /* \"contracts/3_Ballot.sol\":2132:2145  voters[voter] */\n      0xffffffffffffffffffffffffffffffffffffffff\n      and\n      0xffffffffffffffffffffffffffffffffffffffff\n      and\n      dup2\n      mstore\n      0x20\n      add\n      swap1\n      dup2\n      mstore\n      0x20\n      add\n      0x00\n      keccak256\n        /* \"contracts/3_Ballot.sol\":2132:2152  voters[voter].weight */\n      0x00\n      add\n      sload\n        /* \"contracts/3_Ballot.sol\":2132:2157  voters[voter].weight == 0 */\n      eq\n        /* \"contracts/3_Ballot.sol\":2124:2158  require(voters[voter].weight == 0) */\n      tag_106\n      jumpi\n      0x00\n      dup1\n      revert\n    tag_106:\n        /* \"contracts/3_Ballot.sol\":2191:2192  1 */\n      0x01\n        /* \"contracts/3_Ballot.sol\":2168:2174  voters */\n      0x02\n        /* \"contracts/3_Ballot.sol\":2168:2181  voters[voter] */\n      0x00\n        /* \"contracts/3_Ballot.sol\":2175:2180  voter */\n      dup4\n        /* \"contracts/3_Ballot.sol\":2168:2181  voters[voter] */\n      0xffffffffffffffffffffffffffffffffffffffff\n      and\n      0xffffffffffffffffffffffffffffffffffffffff\n      and\n      dup2\n      mstore\n      0x20\n      add\n      swap1\n      dup2\n      mstore\n      0x20\n      add\n      0x00\n      keccak256\n        /* \"contracts/3_Ballot.sol\":2168:2188  voters[voter].weight */\n      0x00\n      add\n        /* \"contracts/3_Ballot.sol\":2168:2192  voters[voter].weight = 1 */\n      dup2\n      swap1\n      sstore\n      pop\n        /* \"contracts/3_Ballot.sol\":1844:2199  function giveRightToVote(address voter) public {... */\n      pop\n      jump\t// out\n        /* \"contracts/3_Ballot.sol\":779:818  mapping(address => Voter) public voters */\n    tag_42:\n      mstore(0x20, 0x02)\n      dup1\n      0x00\n      mstore\n      keccak256(0x00, 0x40)\n      0x00\n      swap2\n      pop\n      swap1\n      pop\n      dup1\n      0x00\n      add\n      sload\n      swap1\n      dup1\n      0x01\n      add\n      0x00\n      swap1\n      sload\n      swap1\n      0x0100\n      exp\n      swap1\n      div\n      0xff\n      and\n      swap1\n      dup1\n      0x01\n      add\n      0x01\n      swap1\n      sload\n      swap1\n      0x0100\n      exp\n      swap1\n      div\n      0xffffffffffffffffffffffffffffffffffffffff\n      and\n      swap1\n      dup1\n      0x02\n      add\n      sload\n      swap1\n      pop\n      dup5\n      jump\t// out\n        /* \"contracts/3_Ballot.sol\":4628:4772  function winnerName() public view... */\n    tag_46:\n        /* \"contracts/3_Ballot.sol\":4683:4702  bytes32 winnerName_ */\n      0x00\n        /* \"contracts/3_Ballot.sol\":4732:4741  proposals */\n      0x03\n        /* \"contracts/3_Ballot.sol\":4742:4759  winningProposal() */\n      tag_108\n        /* \"contracts/3_Ballot.sol\":4742:4757  winningProposal */\n      tag_31\n        /* \"contracts/3_Ballot.sol\":4742:4759  winningProposal() */\n      jump\t// in\n    tag_108:\n        /* \"contracts/3_Ballot.sol\":4732:4760  proposals[winningProposal()] */\n      dup2\n      sload\n      dup2\n      lt\n      tag_109\n      jumpi\n      tag_110\n      tag_62\n      jump\t// in\n    tag_110:\n    tag_109:\n      swap1\n      0x00\n      mstore\n      keccak256(0x00, 0x20)\n      swap1\n      0x02\n      mul\n      add\n        /* \"contracts/3_Ballot.sol\":4732:4765  proposals[winningProposal()].name */\n      0x00\n      add\n      sload\n        /* \"contracts/3_Ballot.sol\":4718:4765  winnerName_ = proposals[winningProposal()].name */\n      swap1\n      pop\n        /* \"contracts/3_Ballot.sol\":4628:4772  function winnerName() public view... */\n      swap1\n      jump\t// out\n        /* \"#utility.yul\":88:205   */\n    tag_113:\n        /* \"#utility.yul\":197:198   */\n      0x00\n        /* \"#utility.yul\":194:195   */\n      dup1\n        /* \"#utility.yul\":187:199   */\n      revert\n        /* \"#utility.yul\":334:411   */\n    tag_115:\n        /* \"#utility.yul\":371:378   */\n      0x00\n        /* \"#utility.yul\":400:405   */\n      dup2\n        /* \"#utility.yul\":389:405   */\n      swap1\n      pop\n        /* \"#utility.yul\":334:411   */\n      swap2\n      swap1\n      pop\n      jump\t// out\n        /* \"#utility.yul\":417:539   */\n    tag_116:\n        /* \"#utility.yul\":490:514   */\n      tag_150\n        /* \"#utility.yul\":508:513   */\n      dup2\n        /* \"#utility.yul\":490:514   */\n      tag_115\n      jump\t// in\n    tag_150:\n        /* \"#utility.yul\":483:488   */\n      dup2\n        /* \"#utility.yul\":480:515   */\n      eq\n        /* \"#utility.yul\":470:533   */\n      tag_151\n      jumpi\n        /* \"#utility.yul\":529:530   */\n      0x00\n        /* \"#utility.yul\":526:527   */\n      dup1\n        /* \"#utility.yul\":519:531   */\n      revert\n        /* \"#utility.yul\":470:533   */\n    tag_151:\n        /* \"#utility.yul\":417:539   */\n      pop\n      jump\t// out\n        /* \"#utility.yul\":545:684   */\n    tag_117:\n        /* \"#utility.yul\":591:596   */\n      0x00\n        /* \"#utility.yul\":629:635   */\n      dup2\n        /* \"#utility.yul\":616:636   */\n      calldataload\n        /* \"#utility.yul\":607:636   */\n      swap1\n      pop\n        /* \"#utility.yul\":645:678   */\n      tag_153\n        /* \"#utility.yul\":672:677   */\n      dup2\n        /* \"#utility.yul\":645:678   */\n      tag_116\n      jump\t// in\n    tag_153:\n        /* \"#utility.yul\":545:684   */\n      swap3\n      swap2\n      pop\n      pop\n      jump\t// out\n        /* \"#utility.yul\":690:1019   */\n    tag_15:\n        /* \"#utility.yul\":749:755   */\n      0x00\n        /* \"#utility.yul\":798:800   */\n      0x20\n        /* \"#utility.yul\":786:795   */\n      dup3\n        /* \"#utility.yul\":777:784   */\n      dup5\n        /* \"#utility.yul\":773:796   */\n      sub\n        /* \"#utility.yul\":769:801   */\n      slt\n        /* \"#utility.yul\":766:885   */\n      iszero\n      tag_155\n      jumpi\n        /* \"#utility.yul\":804:883   */\n      tag_156\n      tag_113\n      jump\t// in\n    tag_156:\n        /* \"#utility.yul\":766:885   */\n    tag_155:\n        /* \"#utility.yul\":924:925   */\n      0x00\n        /* \"#utility.yul\":949:1002   */\n      tag_157\n        /* \"#utility.yul\":994:1001   */\n      dup5\n        /* \"#utility.yul\":985:991   */\n      dup3\n        /* \"#utility.yul\":974:983   */\n      dup6\n        /* \"#utility.yul\":970:992   */\n      add\n        /* \"#utility.yul\":949:1002   */\n      tag_117\n      jump\t// in\n    tag_157:\n        /* \"#utility.yul\":939:1002   */\n      swap2\n      pop\n        /* \"#utility.yul\":895:1012   */\n      pop\n        /* \"#utility.yul\":690:1019   */\n      swap3\n      swap2\n      pop\n      pop\n      jump\t// out\n        /* \"#utility.yul\":1025:1102   */\n    tag_118:\n        /* \"#utility.yul\":1062:1069   */\n      0x00\n        /* \"#utility.yul\":1091:1096   */\n      dup2\n        /* \"#utility.yul\":1080:1096   */\n      swap1\n      pop\n        /* \"#utility.yul\":1025:1102   */\n      swap2\n      swap1\n      pop\n      jump\t// out\n        /* \"#utility.yul\":1108:1226   */\n    tag_119:\n        /* \"#utility.yul\":1195:1219   */\n      tag_160\n        /* \"#utility.yul\":1213:1218   */\n      dup2\n        /* \"#utility.yul\":1195:1219   */\n      tag_118\n      jump\t// in\n    tag_160:\n        /* \"#utility.yul\":1190:1193   */\n      dup3\n        /* \"#utility.yul\":1183:1220   */\n      mstore\n        /* \"#utility.yul\":1108:1226   */\n      pop\n      pop\n      jump\t// out\n        /* \"#utility.yul\":1232:1350   */\n    tag_120:\n        /* \"#utility.yul\":1319:1343   */\n      tag_162\n        /* \"#utility.yul\":1337:1342   */\n      dup2\n        /* \"#utility.yul\":1319:1343   */\n      tag_115\n      jump\t// in\n    tag_162:\n        /* \"#utility.yul\":1314:1317   */\n      dup3\n        /* \"#utility.yul\":1307:1344   */\n      mstore\n        /* \"#utility.yul\":1232:1350   */\n      pop\n      pop\n      jump\t// out\n        /* \"#utility.yul\":1356:1688   */\n    tag_21:\n        /* \"#utility.yul\":1477:1481   */\n      0x00\n        /* \"#utility.yul\":1515:1517   */\n      0x40\n        /* \"#utility.yul\":1504:1513   */\n      dup3\n        /* \"#utility.yul\":1500:1518   */\n      add\n        /* \"#utility.yul\":1492:1518   */\n      swap1\n      pop\n        /* \"#utility.yul\":1528:1599   */\n      tag_164\n        /* \"#utility.yul\":1596:1597   */\n      0x00\n        /* \"#utility.yul\":1585:1594   */\n      dup4\n        /* \"#utility.yul\":1581:1598   */\n      add\n        /* \"#utility.yul\":1572:1578   */\n      dup6\n        /* \"#utility.yul\":1528:1599   */\n      tag_119\n      jump\t// in\n    tag_164:\n        /* \"#utility.yul\":1609:1681   */\n      tag_165\n        /* \"#utility.yul\":1677:1679   */\n      0x20\n        /* \"#utility.yul\":1666:1675   */\n      dup4\n        /* \"#utility.yul\":1662:1680   */\n      add\n        /* \"#utility.yul\":1653:1659   */\n      dup5\n        /* \"#utility.yul\":1609:1681   */\n      tag_120\n      jump\t// in\n    tag_165:\n        /* \"#utility.yul\":1356:1688   */\n      swap4\n      swap3\n      pop\n      pop\n      pop\n      jump\t// out\n        /* \"#utility.yul\":1694:1820   */\n    tag_121:\n        /* \"#utility.yul\":1731:1738   */\n      0x00\n        /* \"#utility.yul\":1771:1813   */\n      0xffffffffffffffffffffffffffffffffffffffff\n        /* \"#utility.yul\":1764:1769   */\n      dup3\n        /* \"#utility.yul\":1760:1814   */\n      and\n        /* \"#utility.yul\":1749:1814   */\n      swap1\n      pop\n        /* \"#utility.yul\":1694:1820   */\n      swap2\n      swap1\n      pop\n      jump\t// out\n        /* \"#utility.yul\":1826:1922   */\n    tag_122:\n        /* \"#utility.yul\":1863:1870   */\n      0x00\n        /* \"#utility.yul\":1892:1916   */\n      tag_168\n        /* \"#utility.yul\":1910:1915   */\n      dup3\n        /* \"#utility.yul\":1892:1916   */\n      tag_121\n      jump\t// in\n    tag_168:\n        /* \"#utility.yul\":1881:1916   */\n      swap1\n      pop\n        /* \"#utility.yul\":1826:1922   */\n      swap2\n      swap1\n      pop\n      jump\t// out\n        /* \"#utility.yul\":1928:2046   */\n    tag_123:\n        /* \"#utility.yul\":2015:2039   */\n      tag_170\n        /* \"#utility.yul\":2033:2038   */\n      dup2\n        /* \"#utility.yul\":2015:2039   */\n      tag_122\n      jump\t// in\n    tag_170:\n        /* \"#utility.yul\":2010:2013   */\n      dup3\n        /* \"#utility.yul\":2003:2040   */\n      mstore\n        /* \"#utility.yul\":1928:2046   */\n      pop\n      pop\n      jump\t// out\n        /* \"#utility.yul\":2052:2274   */\n    tag_25:\n        /* \"#utility.yul\":2145:2149   */\n      0x00\n        /* \"#utility.yul\":2183:2185   */\n      0x20\n        /* \"#utility.yul\":2172:2181   */\n      dup3\n        /* \"#utility.yul\":2168:2186   */\n      add\n        /* \"#utility.yul\":2160:2186   */\n      swap1\n      pop\n        /* \"#utility.yul\":2196:2267   */\n      tag_172\n        /* \"#utility.yul\":2264:2265   */\n      0x00\n        /* \"#utility.yul\":2253:2262   */\n      dup4\n        /* \"#utility.yul\":2249:2266   */\n      add\n        /* \"#utility.yul\":2240:2246   */\n      dup5\n        /* \"#utility.yul\":2196:2267   */\n      tag_123\n      jump\t// in\n    tag_172:\n        /* \"#utility.yul\":2052:2274   */\n      swap3\n      swap2\n      pop\n      pop\n      jump\t// out\n        /* \"#utility.yul\":2280:2402   */\n    tag_124:\n        /* \"#utility.yul\":2353:2377   */\n      tag_174\n        /* \"#utility.yul\":2371:2376   */\n      dup2\n        /* \"#utility.yul\":2353:2377   */\n      tag_122\n      jump\t// in\n    tag_174:\n        /* \"#utility.yul\":2346:2351   */\n      dup2\n        /* \"#utility.yul\":2343:2378   */\n      eq\n        /* \"#utility.yul\":2333:2396   */\n      tag_175\n      jumpi\n        /* \"#utility.yul\":2392:2393   */\n      0x00\n        /* \"#utility.yul\":2389:2390   */\n      dup1\n        /* \"#utility.yul\":2382:2394   */\n      revert\n        /* \"#utility.yul\":2333:2396   */\n    tag_175:\n        /* \"#utility.yul\":2280:2402   */\n      pop\n      jump\t// out\n        /* \"#utility.yul\":2408:2547   */\n    tag_125:\n        /* \"#utility.yul\":2454:2459   */\n      0x00\n        /* \"#utility.yul\":2492:2498   */\n      dup2\n        /* \"#utility.yul\":2479:2499   */\n      calldataload\n        /* \"#utility.yul\":2470:2499   */\n      swap1\n      pop\n        /* \"#utility.yul\":2508:2541   */\n      tag_177\n        /* \"#utility.yul\":2535:2540   */\n      dup2\n        /* \"#utility.yul\":2508:2541   */\n      tag_124\n      jump\t// in\n    tag_177:\n        /* \"#utility.yul\":2408:2547   */\n      swap3\n      swap2\n      pop\n      pop\n      jump\t// out\n        /* \"#utility.yul\":2553:2882   */\n    tag_28:\n        /* \"#utility.yul\":2612:2618   */\n      0x00\n        /* \"#utility.yul\":2661:2663   */\n      0x20\n        /* \"#utility.yul\":2649:2658   */\n      dup3\n        /* \"#utility.yul\":2640:2647   */\n      dup5\n        /* \"#utility.yul\":2636:2659   */\n      sub\n        /* \"#utility.yul\":2632:2664   */\n      slt\n        /* \"#utility.yul\":2629:2748   */\n      iszero\n      tag_179\n      jumpi\n        /* \"#utility.yul\":2667:2746   */\n      tag_180\n      tag_113\n      jump\t// in\n    tag_180:\n        /* \"#utility.yul\":2629:2748   */\n    tag_179:\n        /* \"#utility.yul\":2787:2788   */\n      0x00\n        /* \"#utility.yul\":2812:2865   */\n      tag_181\n        /* \"#utility.yul\":2857:2864   */\n      dup5\n        /* \"#utility.yul\":2848:2854   */\n      dup3\n        /* \"#utility.yul\":2837:2846   */\n      dup6\n        /* \"#utility.yul\":2833:2855   */\n      add\n        /* \"#utility.yul\":2812:2865   */\n      tag_125\n      jump\t// in\n    tag_181:\n        /* \"#utility.yul\":2802:2865   */\n      swap2\n      pop\n        /* \"#utility.yul\":2758:2875   */\n      pop\n        /* \"#utility.yul\":2553:2882   */\n      swap3\n      swap2\n      pop\n      pop\n      jump\t// out\n        /* \"#utility.yul\":2888:3110   */\n    tag_33:\n        /* \"#utility.yul\":2981:2985   */\n      0x00\n        /* \"#utility.yul\":3019:3021   */\n      0x20\n        /* \"#utility.yul\":3008:3017   */\n      dup3\n        /* \"#utility.yul\":3004:3022   */\n      add\n        /* \"#utility.yul\":2996:3022   */\n      swap1\n      pop\n        /* \"#utility.yul\":3032:3103   */\n      tag_183\n        /* \"#utility.yul\":3100:3101   */\n      0x00\n        /* \"#utility.yul\":3089:3098   */\n      dup4\n        /* \"#utility.yul\":3085:3102   */\n      add\n        /* \"#utility.yul\":3076:3082   */\n      dup5\n        /* \"#utility.yul\":3032:3103   */\n      tag_120\n      jump\t// in\n    tag_183:\n        /* \"#utility.yul\":2888:3110   */\n      swap3\n      swap2\n      pop\n      pop\n      jump\t// out\n        /* \"#utility.yul\":3116:3206   */\n    tag_126:\n        /* \"#utility.yul\":3150:3157   */\n      0x00\n        /* \"#utility.yul\":3193:3198   */\n      dup2\n        /* \"#utility.yul\":3186:3199   */\n      iszero\n        /* \"#utility.yul\":3179:3200   */\n      iszero\n        /* \"#utility.yul\":3168:3200   */\n      swap1\n      pop\n        /* \"#utility.yul\":3116:3206   */\n      swap2\n      swap1\n      pop\n      jump\t// out\n        /* \"#utility.yul\":3212:3321   */\n    tag_127:\n        /* \"#utility.yul\":3293:3314   */\n      tag_186\n        /* \"#utility.yul\":3308:3313   */\n      dup2\n        /* \"#utility.yul\":3293:3314   */\n      tag_126\n      jump\t// in\n    tag_186:\n        /* \"#utility.yul\":3288:3291   */\n      dup3\n        /* \"#utility.yul\":3281:3315   */\n      mstore\n        /* \"#utility.yul\":3212:3321   */\n      pop\n      pop\n      jump\t// out\n        /* \"#utility.yul\":3327:3868   */\n    tag_44:\n        /* \"#utility.yul\":3498:3502   */\n      0x00\n        /* \"#utility.yul\":3536:3539   */\n      0x80\n        /* \"#utility.yul\":3525:3534   */\n      dup3\n        /* \"#utility.yul\":3521:3540   */\n      add\n        /* \"#utility.yul\":3513:3540   */\n      swap1\n      pop\n        /* \"#utility.yul\":3550:3621   */\n      tag_188\n        /* \"#utility.yul\":3618:3619   */\n      0x00\n        /* \"#utility.yul\":3607:3616   */\n      dup4\n        /* \"#utility.yul\":3603:3620   */\n      add\n        /* \"#utility.yul\":3594:3600   */\n      dup8\n        /* \"#utility.yul\":3550:3621   */\n      tag_120\n      jump\t// in\n    tag_188:\n        /* \"#utility.yul\":3631:3697   */\n      tag_189\n        /* \"#utility.yul\":3693:3695   */\n      0x20\n        /* \"#utility.yul\":3682:3691   */\n      dup4\n        /* \"#utility.yul\":3678:3696   */\n      add\n        /* \"#utility.yul\":3669:3675   */\n      dup7\n        /* \"#utility.yul\":3631:3697   */\n      tag_127\n      jump\t// in\n    tag_189:\n        /* \"#utility.yul\":3707:3779   */\n      tag_190\n        /* \"#utility.yul\":3775:3777   */\n      0x40\n        /* \"#utility.yul\":3764:3773   */\n      dup4\n        /* \"#utility.yul\":3760:3778   */\n      add\n        /* \"#utility.yul\":3751:3757   */\n      dup6\n        /* \"#utility.yul\":3707:3779   */\n      tag_123\n      jump\t// in\n    tag_190:\n        /* \"#utility.yul\":3789:3861   */\n      tag_191\n        /* \"#utility.yul\":3857:3859   */\n      0x60\n        /* \"#utility.yul\":3846:3855   */\n      dup4\n        /* \"#utility.yul\":3842:3860   */\n      add\n        /* \"#utility.yul\":3833:3839   */\n      dup5\n        /* \"#utility.yul\":3789:3861   */\n      tag_120\n      jump\t// in\n    tag_191:\n        /* \"#utility.yul\":3327:3868   */\n      swap6\n      swap5\n      pop\n      pop\n      pop\n      pop\n      pop\n      jump\t// out\n        /* \"#utility.yul\":3874:4096   */\n    tag_48:\n        /* \"#utility.yul\":3967:3971   */\n      0x00\n        /* \"#utility.yul\":4005:4007   */\n      0x20\n        /* \"#utility.yul\":3994:4003   */\n      dup3\n        /* \"#utility.yul\":3990:4008   */\n      add\n        /* \"#utility.yul\":3982:4008   */\n      swap1\n      pop\n        /* \"#utility.yul\":4018:4089   */\n      tag_193\n        /* \"#utility.yul\":4086:4087   */\n      0x00\n        /* \"#utility.yul\":4075:4084   */\n      dup4\n        /* \"#utility.yul\":4071:4088   */\n      add\n        /* \"#utility.yul\":4062:4068   */\n      dup5\n        /* \"#utility.yul\":4018:4089   */\n      tag_119\n      jump\t// in\n    tag_193:\n        /* \"#utility.yul\":3874:4096   */\n      swap3\n      swap2\n      pop\n      pop\n      jump\t// out\n        /* \"#utility.yul\":4102:4282   */\n    tag_128:\n        /* \"#utility.yul\":4150:4227   */\n      0x4e487b7100000000000000000000000000000000000000000000000000000000\n        /* \"#utility.yul\":4147:4148   */\n      0x00\n        /* \"#utility.yul\":4140:4228   */\n      mstore\n        /* \"#utility.yul\":4247:4251   */\n      0x11\n        /* \"#utility.yul\":4244:4245   */\n      0x04\n        /* \"#utility.yul\":4237:4252   */\n      mstore\n        /* \"#utility.yul\":4271:4275   */\n      0x24\n        /* \"#utility.yul\":4268:4269   */\n      0x00\n        /* \"#utility.yul\":4261:4276   */\n      revert\n        /* \"#utility.yul\":4288:4593   */\n    tag_51:\n        /* \"#utility.yul\":4328:4331   */\n      0x00\n        /* \"#utility.yul\":4347:4367   */\n      tag_196\n        /* \"#utility.yul\":4365:4366   */\n      dup3\n        /* \"#utility.yul\":4347:4367   */\n      tag_115\n      jump\t// in\n    tag_196:\n        /* \"#utility.yul\":4342:4367   */\n      swap2\n      pop\n        /* \"#utility.yul\":4381:4401   */\n      tag_197\n        /* \"#utility.yul\":4399:4400   */\n      dup4\n        /* \"#utility.yul\":4381:4401   */\n      tag_115\n      jump\t// in\n    tag_197:\n        /* \"#utility.yul\":4376:4401   */\n      swap3\n      pop\n        /* \"#utility.yul\":4535:4536   */\n      dup3\n        /* \"#utility.yul\":4467:4533   */\n      0xffffffffffffffffffffffffffffffffffffffffffffffffffffffffffffffff\n        /* \"#utility.yul\":4463:4537   */\n      sub\n        /* \"#utility.yul\":4460:4461   */\n      dup3\n        /* \"#utility.yul\":4457:4538   */\n      gt\n        /* \"#utility.yul\":4454:4561   */\n      iszero\n      tag_198\n      jumpi\n        /* \"#utility.yul\":4541:4559   */\n      tag_199\n      tag_128\n      jump\t// in\n    tag_199:\n        /* \"#utility.yul\":4454:4561   */\n    tag_198:\n        /* \"#utility.yul\":4585:4586   */\n      dup3\n        /* \"#utility.yul\":4582:4583   */\n      dup3\n        /* \"#utility.yul\":4578:4587   */\n      add\n        /* \"#utility.yul\":4571:4587   */\n      swap1\n      pop\n        /* \"#utility.yul\":4288:4593   */\n      swap3\n      swap2\n      pop\n      pop\n      jump\t// out\n        /* \"#utility.yul\":4599:4768   */\n    tag_129:\n        /* \"#utility.yul\":4683:4694   */\n      0x00\n        /* \"#utility.yul\":4717:4723   */\n      dup3\n        /* \"#utility.yul\":4712:4715   */\n      dup3\n        /* \"#utility.yul\":4705:4724   */\n      mstore\n        /* \"#utility.yul\":4757:4761   */\n      0x20\n        /* \"#utility.yul\":4752:4755   */\n      dup3\n        /* \"#utility.yul\":4748:4762   */\n      add\n        /* \"#utility.yul\":4733:4762   */\n      swap1\n      pop\n        /* \"#utility.yul\":4599:4768   */\n      swap3\n      swap2\n      pop\n      pop\n      jump\t// out\n        /* \"#utility.yul\":4774:4944   */\n    tag_130:\n        /* \"#utility.yul\":4914:4936   */\n      0x486173206e6f20726967687420746f20766f7465000000000000000000000000\n        /* \"#utility.yul\":4910:4911   */\n      0x00\n        /* \"#utility.yul\":4902:4908   */\n      dup3\n        /* \"#utility.yul\":4898:4912   */\n      add\n        /* \"#utility.yul\":4891:4937   */\n      mstore\n        /* \"#utility.yul\":4774:4944   */\n      pop\n      jump\t// out\n        /* \"#utility.yul\":4950:5316   */\n    tag_131:\n        /* \"#utility.yul\":5092:5095   */\n      0x00\n        /* \"#utility.yul\":5113:5180   */\n      tag_203\n        /* \"#utility.yul\":5177:5179   */\n      0x14\n        /* \"#utility.yul\":5172:5175   */\n      dup4\n        /* \"#utility.yul\":5113:5180   */\n      tag_129\n      jump\t// in\n    tag_203:\n        /* \"#utility.yul\":5106:5180   */\n      swap2\n      pop\n        /* \"#utility.yul\":5189:5282   */\n      tag_204\n        /* \"#utility.yul\":5278:5281   */\n      dup3\n        /* \"#utility.yul\":5189:5282   */\n      tag_130\n      jump\t// in\n    tag_204:\n        /* \"#utility.yul\":5307:5309   */\n      0x20\n        /* \"#utility.yul\":5302:5305   */\n      dup3\n        /* \"#utility.yul\":5298:5310   */\n      add\n        /* \"#utility.yul\":5291:5310   */\n      swap1\n      pop\n        /* \"#utility.yul\":4950:5316   */\n      swap2\n      swap1\n      pop\n      jump\t// out\n        /* \"#utility.yul\":5322:5741   */\n    tag_56:\n        /* \"#utility.yul\":5488:5492   */\n      0x00\n        /* \"#utility.yul\":5526:5528   */\n      0x20\n        /* \"#utility.yul\":5515:5524   */\n      dup3\n        /* \"#utility.yul\":5511:5529   */\n      add\n        /* \"#utility.yul\":5503:5529   */\n      swap1\n      pop\n        /* \"#utility.yul\":5575:5584   */\n      dup2\n        /* \"#utility.yul\":5569:5573   */\n      dup2\n        /* \"#utility.yul\":5565:5585   */\n      sub\n        /* \"#utility.yul\":5561:5562   */\n      0x00\n        /* \"#utility.yul\":5550:5559   */\n      dup4\n        /* \"#utility.yul\":5546:5563   */\n      add\n        /* \"#utility.yul\":5539:5586   */\n      mstore\n        /* \"#utility.yul\":5603:5734   */\n      tag_206\n        /* \"#utility.yul\":5729:5733   */\n      dup2\n        /* \"#utility.yul\":5603:5734   */\n      tag_131\n      jump\t// in\n    tag_206:\n        /* \"#utility.yul\":5595:5734   */\n      swap1\n      pop\n        /* \"#utility.yul\":5322:5741   */\n      swap2\n      swap1\n      pop\n      jump\t// out\n        /* \"#utility.yul\":5747:5911   */\n    tag_132:\n        /* \"#utility.yul\":5887:5903   */\n      0x416c726561647920766f7465642e000000000000000000000000000000000000\n        /* \"#utility.yul\":5883:5884   */\n      0x00\n        /* \"#utility.yul\":5875:5881   */\n      dup3\n        /* \"#utility.yul\":5871:5885   */\n      add\n        /* \"#utility.yul\":5864:5904   */\n      mstore\n        /* \"#utility.yul\":5747:5911   */\n      pop\n      jump\t// out\n        /* \"#utility.yul\":5917:6283   */\n    tag_133:\n        /* \"#utility.yul\":6059:6062   */\n      0x00\n        /* \"#utility.yul\":6080:6147   */\n      tag_209\n        /* \"#utility.yul\":6144:6146   */\n      0x0e\n        /* \"#utility.yul\":6139:6142   */\n      dup4\n        /* \"#utility.yul\":6080:6147   */\n      tag_129\n      jump\t// in\n    tag_209:\n        /* \"#utility.yul\":6073:6147   */\n      swap2\n      pop\n        /* \"#utility.yul\":6156:6249   */\n      tag_210\n        /* \"#utility.yul\":6245:6248   */\n      dup3\n        /* \"#utility.yul\":6156:6249   */\n      tag_132\n      jump\t// in\n    tag_210:\n        /* \"#utility.yul\":6274:6276   */\n      0x20\n        /* \"#utility.yul\":6269:6272   */\n      dup3\n        /* \"#utility.yul\":6265:6277   */\n      add\n        /* \"#utility.yul\":6258:6277   */\n      swap1\n      pop\n        /* \"#utility.yul\":5917:6283   */\n      swap2\n      swap1\n      pop\n      jump\t// out\n        /* \"#utility.yul\":6289:6708   */\n    tag_59:\n        /* \"#utility.yul\":6455:6459   */\n      0x00\n        /* \"#utility.yul\":6493:6495   */\n      0x20\n        /* \"#utility.yul\":6482:6491   */\n      dup3\n        /* \"#utility.yul\":6478:6496   */\n      add\n        /* \"#utility.yul\":6470:6496   */\n      swap1\n      pop\n        /* \"#utility.yul\":6542:6551   */\n      dup2\n        /* \"#utility.yul\":6536:6540   */\n      dup2\n        /* \"#utility.yul\":6532:6552   */\n      sub\n        /* \"#utility.yul\":6528:6529   */\n      0x00\n        /* \"#utility.yul\":6517:6526   */\n      dup4\n        /* \"#utility.yul\":6513:6530   */\n      add\n        /* \"#utility.yul\":6506:6553   */\n      mstore\n        /* \"#utility.yul\":6570:6701   */\n      tag_212\n        /* \"#utility.yul\":6696:6700   */\n      dup2\n        /* \"#utility.yul\":6570:6701   */\n      tag_133\n      jump\t// in\n    tag_212:\n        /* \"#utility.yul\":6562:6701   */\n      swap1\n      pop\n        /* \"#utility.yul\":6289:6708   */\n      swap2\n      swap1\n      pop\n      jump\t// out\n        /* \"#utility.yul\":6714:6894   */\n    tag_62:\n        /* \"#utility.yul\":6762:6839   */\n      0x4e487b7100000000000000000000000000000000000000000000000000000000\n        /* \"#utility.yul\":6759:6760   */\n      0x00\n        /* \"#utility.yul\":6752:6840   */\n      mstore\n        /* \"#utility.yul\":6859:6863   */\n      0x32\n        /* \"#utility.yul\":6856:6857   */\n      0x04\n        /* \"#utility.yul\":6849:6864   */\n      mstore\n        /* \"#utility.yul\":6883:6887   */\n      0x24\n        /* \"#utility.yul\":6880:6881   */\n      0x00\n        /* \"#utility.yul\":6873:6888   */\n      revert\n        /* \"#utility.yul\":6900:7068   */\n    tag_134:\n        /* \"#utility.yul\":7040:7060   */\n      0x596f7520616c726561647920766f7465642e0000000000000000000000000000\n        /* \"#utility.yul\":7036:7037   */\n      0x00\n        /* \"#utility.yul\":7028:7034   */\n      dup3\n        /* \"#utility.yul\":7024:7038   */\n      add\n        /* \"#utility.yul\":7017:7061   */\n      mstore\n        /* \"#utility.yul\":6900:7068   */\n      pop\n      jump\t// out\n        /* \"#utility.yul\":7074:7440   */\n    tag_135:\n        /* \"#utility.yul\":7216:7219   */\n      0x00\n        /* \"#utility.yul\":7237:7304   */\n      tag_216\n        /* \"#utility.yul\":7301:7303   */\n      0x12\n        /* \"#utility.yul\":7296:7299   */\n      dup4\n        /* \"#utility.yul\":7237:7304   */\n      tag_129\n      jump\t// in\n    tag_216:\n        /* \"#utility.yul\":7230:7304   */\n      swap2\n      pop\n        /* \"#utility.yul\":7313:7406   */\n      tag_217\n        /* \"#utility.yul\":7402:7405   */\n      dup3\n        /* \"#utility.yul\":7313:7406   */\n      tag_134\n      jump\t// in\n    tag_217:\n        /* \"#utility.yul\":7431:7433   */\n      0x20\n        /* \"#utility.yul\":7426:7429   */\n      dup3\n        /* \"#utility.yul\":7422:7434   */\n      add\n        /* \"#utility.yul\":7415:7434   */\n      swap1\n      pop\n        /* \"#utility.yul\":7074:7440   */\n      swap2\n      swap1\n      pop\n      jump\t// out\n        /* \"#utility.yul\":7446:7865   */\n    tag_70:\n        /* \"#utility.yul\":7612:7616   */\n      0x00\n        /* \"#utility.yul\":7650:7652   */\n      0x20\n        /* \"#utility.yul\":7639:7648   */\n      dup3\n        /* \"#utility.yul\":7635:7653   */\n      add\n        /* \"#utility.yul\":7627:7653   */\n      swap1\n      pop\n        /* \"#utility.yul\":7699:7708   */\n      dup2\n        /* \"#utility.yul\":7693:7697   */\n      dup2\n        /* \"#utility.yul\":7689:7709   */\n      sub\n        /* \"#utility.yul\":7685:7686   */\n      0x00\n        /* \"#utility.yul\":7674:7683   */\n      dup4\n        /* \"#utility.yul\":7670:7687   */\n      add\n        /* \"#utility.yul\":7663:7710   */\n      mstore\n        /* \"#utility.yul\":7727:7858   */\n      tag_219\n        /* \"#utility.yul\":7853:7857   */\n      dup2\n        /* \"#utility.yul\":7727:7858   */\n      tag_135\n      jump\t// in\n    tag_219:\n        /* \"#utility.yul\":7719:7858   */\n      swap1\n      pop\n        /* \"#utility.yul\":7446:7865   */\n      swap2\n      swap1\n      pop\n      jump\t// out\n        /* \"#utility.yul\":7871:8051   */\n    tag_136:\n        /* \"#utility.yul\":8011:8043   */\n      0x53656c662d64656c65676174696f6e20697320646973616c6c6f7765642e0000\n        /* \"#utility.yul\":8007:8008   */\n      0x00\n        /* \"#utility.yul\":7999:8005   */\n      dup3\n        /* \"#utility.yul\":7995:8009   */\n      add\n        /* \"#utility.yul\":7988:8044   */\n      mstore\n        /* \"#utility.yul\":7871:8051   */\n      pop\n      jump\t// out\n        /* \"#utility.yul\":8057:8423   */\n    tag_137:\n        /* \"#utility.yul\":8199:8202   */\n      0x00\n        /* \"#utility.yul\":8220:8287   */\n      tag_222\n        /* \"#utility.yul\":8284:8286   */\n      0x1e\n        /* \"#utility.yul\":8279:8282   */\n      dup4\n        /* \"#utility.yul\":8220:8287   */\n      tag_129\n      jump\t// in\n    tag_222:\n        /* \"#utility.yul\":8213:8287   */\n      swap2\n      pop\n        /* \"#utility.yul\":8296:8389   */\n      tag_223\n        /* \"#utility.yul\":8385:8388   */\n      dup3\n        /* \"#utility.yul\":8296:8389   */\n      tag_136\n      jump\t// in\n    tag_223:\n        /* \"#utility.yul\":8414:8416   */\n      0x20\n        /* \"#utility.yul\":8409:8412   */\n      dup3\n        /* \"#utility.yul\":8405:8417   */\n      add\n        /* \"#utility.yul\":8398:8417   */\n      swap1\n      pop\n        /* \"#utility.yul\":8057:8423   */\n      swap2\n      swap1\n      pop\n      jump\t// out\n        /* \"#utility.yul\":8429:8848   */\n    tag_73:\n        /* \"#utility.yul\":8595:8599   */\n      0x00\n        /* \"#utility.yul\":8633:8635   */\n      0x20\n        /* \"#utility.yul\":8622:8631   */\n      dup3\n        /* \"#utility.yul\":8618:8636   */\n      add\n        /* \"#utility.yul\":8610:8636   */\n      swap1\n      pop\n        /* \"#utility.yul\":8682:8691   */\n      dup2\n        /* \"#utility.yul\":8676:8680   */\n      dup2\n        /* \"#utility.yul\":8672:8692   */\n      sub\n        /* \"#utility.yul\":8668:8669   */\n      0x00\n        /* \"#utility.yul\":8657:8666   */\n      dup4\n        /* \"#utility.yul\":8653:8670   */\n      add\n        /* \"#utility.yul\":8646:8693   */\n      mstore\n        /* \"#utility.yul\":8710:8841   */\n      tag_225\n        /* \"#utility.yul\":8836:8840   */\n      dup2\n        /* \"#utility.yul\":8710:8841   */\n      tag_137\n      jump\t// in\n    tag_225:\n        /* \"#utility.yul\":8702:8841   */\n      swap1\n      pop\n        /* \"#utility.yul\":8429:8848   */\n      swap2\n      swap1\n      pop\n      jump\t// out\n        /* \"#utility.yul\":8854:9029   */\n    tag_138:\n        /* \"#utility.yul\":8994:9021   */\n      0x466f756e64206c6f6f7020696e2064656c65676174696f6e2e00000000000000\n        /* \"#utility.yul\":8990:8991   */\n      0x00\n        /* \"#utility.yul\":8982:8988   */\n      dup3\n        /* \"#utility.yul\":8978:8992   */\n      add\n        /* \"#utility.yul\":8971:9022   */\n      mstore\n        /* \"#utility.yul\":8854:9029   */\n      pop\n      jump\t// out\n        /* \"#utility.yul\":9035:9401   */\n    tag_139:\n        /* \"#utility.yul\":9177:9180   */\n      0x00\n        /* \"#utility.yul\":9198:9265   */\n      tag_228\n        /* \"#utility.yul\":9262:9264   */\n      0x19\n        /* \"#utility.yul\":9257:9260   */\n      dup4\n        /* \"#utility.yul\":9198:9265   */\n      tag_129\n      jump\t// in\n    tag_228:\n        /* \"#utility.yul\":9191:9265   */\n      swap2\n      pop\n        /* \"#utility.yul\":9274:9367   */\n      tag_229\n        /* \"#utility.yul\":9363:9366   */\n      dup3\n        /* \"#utility.yul\":9274:9367   */\n      tag_138\n      jump\t// in\n    tag_229:\n        /* \"#utility.yul\":9392:9394   */\n      0x20\n        /* \"#utility.yul\":9387:9390   */\n      dup3\n        /* \"#utility.yul\":9383:9395   */\n      add\n        /* \"#utility.yul\":9376:9395   */\n      swap1\n      pop\n        /* \"#utility.yul\":9035:9401   */\n      swap2\n      swap1\n      pop\n      jump\t// out\n        /* \"#utility.yul\":9407:9826   */\n    tag_78:\n        /* \"#utility.yul\":9573:9577   */\n      0x00\n        /* \"#utility.yul\":9611:9613   */\n      0x20\n        /* \"#utility.yul\":9600:9609   */\n      dup3\n        /* \"#utility.yul\":9596:9614   */\n      add\n        /* \"#utility.yul\":9588:9614   */\n      swap1\n      pop\n        /* \"#utility.yul\":9660:9669   */\n      dup2\n        /* \"#utility.yul\":9654:9658   */\n      dup2\n        /* \"#utility.yul\":9650:9670   */\n      sub\n        /* \"#utility.yul\":9646:9647   */\n      0x00\n        /* \"#utility.yul\":9635:9644   */\n      dup4\n        /* \"#utility.yul\":9631:9648   */\n      add\n        /* \"#utility.yul\":9624:9671   */\n      mstore\n        /* \"#utility.yul\":9688:9819   */\n      tag_231\n        /* \"#utility.yul\":9814:9818   */\n      dup2\n        /* \"#utility.yul\":9688:9819   */\n      tag_139\n      jump\t// in\n    tag_231:\n        /* \"#utility.yul\":9680:9819   */\n      swap1\n      pop\n        /* \"#utility.yul\":9407:9826   */\n      swap2\n      swap1\n      pop\n      jump\t// out\n        /* \"#utility.yul\":9832:10065   */\n    tag_98:\n        /* \"#utility.yul\":9871:9874   */\n      0x00\n        /* \"#utility.yul\":9894:9918   */\n      tag_233\n        /* \"#utility.yul\":9912:9917   */\n      dup3\n        /* \"#utility.yul\":9894:9918   */\n      tag_115\n      jump\t// in\n    tag_233:\n        /* \"#utility.yul\":9885:9918   */\n      swap2\n      pop\n        /* \"#utility.yul\":9940:10006   */\n      0xffffffffffffffffffffffffffffffffffffffffffffffffffffffffffffffff\n        /* \"#utility.yul\":9933:9938   */\n      dup3\n        /* \"#utility.yul\":9930:10007   */\n      sub\n        /* \"#utility.yul\":9927:10030   */\n      tag_234\n      jumpi\n        /* \"#utility.yul\":10010:10028   */\n      tag_235\n      tag_128\n      jump\t// in\n    tag_235:\n        /* \"#utility.yul\":9927:10030   */\n    tag_234:\n        /* \"#utility.yul\":10057:10058   */\n      0x01\n        /* \"#utility.yul\":10050:10055   */\n      dup3\n        /* \"#utility.yul\":10046:10059   */\n      add\n        /* \"#utility.yul\":10039:10059   */\n      swap1\n      pop\n        /* \"#utility.yul\":9832:10065   */\n      swap2\n      swap1\n      pop\n      jump\t// out\n        /* \"#utility.yul\":10071:10298   */\n    tag_140:\n        /* \"#utility.yul\":10211:10245   */\n      0x4f6e6c79206368616972706572736f6e2063616e206769766520726967687420\n        /* \"#utility.yul\":10207:10208   */\n      0x00\n        /* \"#utility.yul\":10199:10205   */\n      dup3\n        /* \"#utility.yul\":10195:10209   */\n      add\n        /* \"#utility.yul\":10188:10246   */\n      mstore\n        /* \"#utility.yul\":10280:10290   */\n      0x746f20766f74652e000000000000000000000000000000000000000000000000\n        /* \"#utility.yul\":10275:10277   */\n      0x20\n        /* \"#utility.yul\":10267:10273   */\n      dup3\n        /* \"#utility.yul\":10263:10278   */\n      add\n        /* \"#utility.yul\":10256:10291   */\n      mstore\n        /* \"#utility.yul\":10071:10298   */\n      pop\n      jump\t// out\n        /* \"#utility.yul\":10304:10670   */\n    tag_141:\n        /* \"#utility.yul\":10446:10449   */\n      0x00\n        /* \"#utility.yul\":10467:10534   */\n      tag_238\n        /* \"#utility.yul\":10531:10533   */\n      0x28\n        /* \"#utility.yul\":10526:10529   */\n      dup4\n        /* \"#utility.yul\":10467:10534   */\n      tag_129\n      jump\t// in\n    tag_238:\n        /* \"#utility.yul\":10460:10534   */\n      swap2\n      pop\n        /* \"#utility.yul\":10543:10636   */\n      tag_239\n        /* \"#utility.yul\":10632:10635   */\n      dup3\n        /* \"#utility.yul\":10543:10636   */\n      tag_140\n      jump\t// in\n    tag_239:\n        /* \"#utility.yul\":10661:10663   */\n      0x40\n        /* \"#utility.yul\":10656:10659   */\n      dup3\n        /* \"#utility.yul\":10652:10664   */\n      add\n        /* \"#utility.yul\":10645:10664   */\n      swap1\n      pop\n        /* \"#utility.yul\":10304:10670   */\n      swap2\n      swap1\n      pop\n      jump\t// out\n        /* \"#utility.yul\":10676:11095   */\n    tag_102:\n        /* \"#utility.yul\":10842:10846   */\n      0x00\n        /* \"#utility.yul\":10880:10882   */\n      0x20\n        /* \"#utility.yul\":10869:10878   */\n      dup3\n        /* \"#utility.yul\":10865:10883   */\n      add\n        /* \"#utility.yul\":10857:10883   */\n      swap1\n      pop\n        /* \"#utility.yul\":10929:10938   */\n      dup2\n        /* \"#utility.yul\":10923:10927   */\n      dup2\n        /* \"#utility.yul\":10919:10939   */\n      sub\n        /* \"#utility.yul\":10915:10916   */\n      0x00\n        /* \"#utility.yul\":10904:10913   */\n      dup4\n        /* \"#utility.yul\":10900:10917   */\n      add\n        /* \"#utility.yul\":10893:10940   */\n      mstore\n        /* \"#utility.yul\":10957:11088   */\n      tag_241\n        /* \"#utility.yul\":11083:11087   */\n      dup2\n        /* \"#utility.yul\":10957:11088   */\n      tag_141\n      jump\t// in\n    tag_241:\n        /* \"#utility.yul\":10949:11088   */\n      swap1\n      pop\n        /* \"#utility.yul\":10676:11095   */\n      swap2\n      swap1\n      pop\n      jump\t// out\n        /* \"#utility.yul\":11101:11275   */\n    tag_142:\n        /* \"#utility.yul\":11241:11267   */\n      0x54686520766f74657220616c726561647920766f7465642e0000000000000000\n        /* \"#utility.yul\":11237:11238   */\n      0x00\n        /* \"#utility.yul\":11229:11235   */\n      dup3\n        /* \"#utility.yul\":11225:11239   */\n      add\n        /* \"#utility.yul\":11218:11268   */\n      mstore\n        /* \"#utility.yul\":11101:11275   */\n      pop\n      jump\t// out\n        /* \"#utility.yul\":11281:11647   */\n    tag_143:\n        /* \"#utility.yul\":11423:11426   */\n      0x00\n        /* \"#utility.yul\":11444:11511   */\n      tag_244\n        /* \"#utility.yul\":11508:11510   */\n      0x18\n        /* \"#utility.yul\":11503:11506   */\n      dup4\n        /* \"#utility.yul\":11444:11511   */\n      tag_129\n      jump\t// in\n    tag_244:\n        /* \"#utility.yul\":11437:11511   */\n      swap2\n      pop\n        /* \"#utility.yul\":11520:11613   */\n      tag_245\n        /* \"#utility.yul\":11609:11612   */\n      dup3\n        /* \"#utility.yul\":11520:11613   */\n      tag_142\n      jump\t// in\n    tag_245:\n        /* \"#utility.yul\":11638:11640   */\n      0x20\n        /* \"#utility.yul\":11633:11636   */\n      dup3\n        /* \"#utility.yul\":11629:11641   */\n      add\n        /* \"#utility.yul\":11622:11641   */\n      swap1\n      pop\n        /* \"#utility.yul\":11281:11647   */\n      swap2\n      swap1\n      pop\n      jump\t// out\n        /* \"#utility.yul\":11653:12072   */\n    tag_105:\n        /* \"#utility.yul\":11819:11823   */\n      0x00\n        /* \"#utility.yul\":11857:11859   */\n      0x20\n        /* \"#utility.yul\":11846:11855   */\n      dup3\n        /* \"#utility.yul\":11842:11860   */\n      add\n        /* \"#utility.yul\":11834:11860   */\n      swap1\n      pop\n        /* \"#utility.yul\":11906:11915   */\n      dup2\n        /* \"#utility.yul\":11900:11904   */\n      dup2\n        /* \"#utility.yul\":11896:11916   */\n      sub\n        /* \"#utility.yul\":11892:11893   */\n      0x00\n        /* \"#utility.yul\":11881:11890   */\n      dup4\n        /* \"#utility.yul\":11877:11894   */\n      add\n        /* \"#utility.yul\":11870:11917   */\n      mstore\n        /* \"#utility.yul\":11934:12065   */\n      tag_247\n        /* \"#utility.yul\":12060:12064   */\n      dup2\n        /* \"#utility.yul\":11934:12065   */\n      tag_143\n      jump\t// in\n    tag_247:\n        /* \"#utility.yul\":11926:12065   */\n      swap1\n      pop\n        /* \"#utility.yul\":11653:12072   */\n      swap2\n      swap1\n      pop\n      jump\t// out\n\n    auxdata: 0xa26469706673582212208f8db395d172892eaba711c24d50a398035e3298f980b378cefb4ffdde08c76b64736f6c634300080d0033\n}\n",
				"bytecode": {
					"linkReferences": {},
					"object": "60806040523480156200001157600080fd5b50604051620014b3380380620014b383398181016040528101906200003791906200034a565b336000806101000a81548173ffffffffffffffffffffffffffffffffffffffff021916908373ffffffffffffffffffffffffffffffffffffffff1602179055506001600260008060009054906101000a900473ffffffffffffffffffffffffffffffffffffffff1673ffffffffffffffffffffffffffffffffffffffff1673ffffffffffffffffffffffffffffffffffffffff168152602001908152602001600020600001819055504260018190555060005b81518110156200017e57600360405180604001604052808484815181106200011757620001166200039b565b5b6020026020010151815260200160008152509080600181540180825580915050600190039060005260206000209060020201600090919091909150600082015181600001556020820151816001015550508080620001759062000403565b915050620000ea565b505062000450565b6000604051905090565b600080fd5b600080fd5b600080fd5b6000601f19601f8301169050919050565b7f4e487b7100000000000000000000000000000000000000000000000000000000600052604160045260246000fd5b620001ea826200019f565b810181811067ffffffffffffffff821117156200020c576200020b620001b0565b5b80604052505050565b60006200022162000186565b90506200022f8282620001df565b919050565b600067ffffffffffffffff821115620002525762000251620001b0565b5b602082029050602081019050919050565b600080fd5b6000819050919050565b6200027d8162000268565b81146200028957600080fd5b50565b6000815190506200029d8162000272565b92915050565b6000620002ba620002b48462000234565b62000215565b90508083825260208201905060208402830185811115620002e057620002df62000263565b5b835b818110156200030d5780620002f888826200028c565b845260208401935050602081019050620002e2565b5050509392505050565b600082601f8301126200032f576200032e6200019a565b5b815162000341848260208601620002a3565b91505092915050565b60006020828403121562000363576200036262000190565b5b600082015167ffffffffffffffff81111562000384576200038362000195565b5b620003928482850162000317565b91505092915050565b7f4e487b7100000000000000000000000000000000000000000000000000000000600052603260045260246000fd5b7f4e487b7100000000000000000000000000000000000000000000000000000000600052601160045260246000fd5b6000819050919050565b60006200041082620003f9565b91507fffffffffffffffffffffffffffffffffffffffffffffffffffffffffffffffff8203620004455762000444620003ca565b5b600182019050919050565b61105380620004606000396000f3fe608060405234801561001057600080fd5b50600436106100935760003560e01c8063609ff1bd11610066578063609ff1bd1461011f57806378e979251461013d5780639e7b8d611461015b578063a3ec138d14610177578063e2ba53f0146101aa57610093565b80630121b93f14610098578063013cf08b146100b45780632e4176cf146100e55780635c19a95c14610103575b600080fd5b6100b260048036038101906100ad9190610a2d565b6101c8565b005b6100ce60048036038101906100c99190610a2d565b610329565b6040516100dc929190610a82565b60405180910390f35b6100ed61035d565b6040516100fa9190610aec565b60405180910390f35b61011d60048036038101906101189190610b33565b610381565b005b61012761071b565b6040516101349190610b60565b60405180910390f35b6101456107a3565b6040516101529190610b60565b60405180910390f35b61017560048036038101906101709190610b33565b6107a9565b005b610191600480360381019061018c9190610b33565b610961565b6040516101a19493929190610b96565b60405180910390f35b6101b26109be565b6040516101bf9190610bdb565b60405180910390f35b61012c6001546101d89190610c25565b42106101e357600080fd5b6000600260003373ffffffffffffffffffffffffffffffffffffffff1673ffffffffffffffffffffffffffffffffffffffff1681526020019081526020016000209050600081600001540361026d576040517f08c379a000000000000000000000000000000000000000000000000000000000815260040161026490610cd8565b60405180910390fd5b8060010160009054906101000a900460ff16156102bf576040517f08c379a00000000000000000000000000000000000000000000000000000000081526004016102b690610d44565b60405180910390fd5b60018160010160006101000a81548160ff0219169083151502179055508181600201819055508060000154600383815481106102fe576102fd610d64565b5b9060005260206000209060020201600101600082825461031e9190610c25565b925050819055505050565b6003818154811061033957600080fd5b90600052602060002090600202016000915090508060000154908060010154905082565b60008054906101000a900473ffffffffffffffffffffffffffffffffffffffff1681565b6000600260003373ffffffffffffffffffffffffffffffffffffffff1673ffffffffffffffffffffffffffffffffffffffff16815260200190815260200160002090508060010160009054906101000a900460ff1615610416576040517f08c379a000000000000000000000000000000000000000000000000000000000815260040161040d90610ddf565b60405180910390fd5b3373ffffffffffffffffffffffffffffffffffffffff168273ffffffffffffffffffffffffffffffffffffffff1603610484576040517f08c379a000000000000000000000000000000000000000000000000000000000815260040161047b90610e4b565b60405180910390fd5b5b600073ffffffffffffffffffffffffffffffffffffffff16600260008473ffffffffffffffffffffffffffffffffffffffff1673ffffffffffffffffffffffffffffffffffffffff16815260200190815260200160002060010160019054906101000a900473ffffffffffffffffffffffffffffffffffffffff1673ffffffffffffffffffffffffffffffffffffffff16146105f357600260008373ffffffffffffffffffffffffffffffffffffffff1673ffffffffffffffffffffffffffffffffffffffff16815260200190815260200160002060010160019054906101000a900473ffffffffffffffffffffffffffffffffffffffff1691503373ffffffffffffffffffffffffffffffffffffffff168273ffffffffffffffffffffffffffffffffffffffff16036105ee576040517f08c379a00000000000000000000000000000000000000000000000000000000081526004016105e590610eb7565b60405180910390fd5b610485565b60018160010160006101000a81548160ff021916908315150217905550818160010160016101000a81548173ffffffffffffffffffffffffffffffffffffffff021916908373ffffffffffffffffffffffffffffffffffffffff1602179055506000600260008473ffffffffffffffffffffffffffffffffffffffff1673ffffffffffffffffffffffffffffffffffffffff16815260200190815260200160002090508060010160009054906101000a900460ff16156106f657816000015460038260020154815481106106ca576106c9610d64565b5b906000526020600020906002020160010160008282546106ea9190610c25565b92505081905550610716565b816000015481600001600082825461070e9190610c25565b925050819055505b505050565b6000806000905060005b60038054905081101561079e57816003828154811061074757610746610d64565b5b906000526020600020906002020160010154111561078b576003818154811061077357610772610d64565b5b90600052602060002090600202016001015491508092505b808061079690610ed7565b915050610725565b505090565b60015481565b60008054906101000a900473ffffffffffffffffffffffffffffffffffffffff1673ffffffffffffffffffffffffffffffffffffffff163373ffffffffffffffffffffffffffffffffffffffff1614610837576040517f08c379a000000000000000000000000000000000000000000000000000000000815260040161082e90610f91565b60405180910390fd5b600260008273ffffffffffffffffffffffffffffffffffffffff1673ffffffffffffffffffffffffffffffffffffffff16815260200190815260200160002060010160009054906101000a900460ff16156108c7576040517f08c379a00000000000000000000000000000000000000000000000000000000081526004016108be90610ffd565b60405180910390fd5b6000600260008373ffffffffffffffffffffffffffffffffffffffff1673ffffffffffffffffffffffffffffffffffffffff168152602001908152602001600020600001541461091657600080fd5b6001600260008373ffffffffffffffffffffffffffffffffffffffff1673ffffffffffffffffffffffffffffffffffffffff1681526020019081526020016000206000018190555050565b60026020528060005260406000206000915090508060000154908060010160009054906101000a900460ff16908060010160019054906101000a900473ffffffffffffffffffffffffffffffffffffffff16908060020154905084565b600060036109ca61071b565b815481106109db576109da610d64565b5b906000526020600020906002020160000154905090565b600080fd5b6000819050919050565b610a0a816109f7565b8114610a1557600080fd5b50565b600081359050610a2781610a01565b92915050565b600060208284031215610a4357610a426109f2565b5b6000610a5184828501610a18565b91505092915050565b6000819050919050565b610a6d81610a5a565b82525050565b610a7c816109f7565b82525050565b6000604082019050610a976000830185610a64565b610aa46020830184610a73565b9392505050565b600073ffffffffffffffffffffffffffffffffffffffff82169050919050565b6000610ad682610aab565b9050919050565b610ae681610acb565b82525050565b6000602082019050610b016000830184610add565b92915050565b610b1081610acb565b8114610b1b57600080fd5b50565b600081359050610b2d81610b07565b92915050565b600060208284031215610b4957610b486109f2565b5b6000610b5784828501610b1e565b91505092915050565b6000602082019050610b756000830184610a73565b92915050565b60008115159050919050565b610b9081610b7b565b82525050565b6000608082019050610bab6000830187610a73565b610bb86020830186610b87565b610bc56040830185610add565b610bd26060830184610a73565b95945050505050565b6000602082019050610bf06000830184610a64565b92915050565b7f4e487b7100000000000000000000000000000000000000000000000000000000600052601160045260246000fd5b6000610c30826109f7565b9150610c3b836109f7565b9250827fffffffffffffffffffffffffffffffffffffffffffffffffffffffffffffffff03821115610c7057610c6f610bf6565b5b828201905092915050565b600082825260208201905092915050565b7f486173206e6f20726967687420746f20766f7465000000000000000000000000600082015250565b6000610cc2601483610c7b565b9150610ccd82610c8c565b602082019050919050565b60006020820190508181036000830152610cf181610cb5565b9050919050565b7f416c726561647920766f7465642e000000000000000000000000000000000000600082015250565b6000610d2e600e83610c7b565b9150610d3982610cf8565b602082019050919050565b60006020820190508181036000830152610d5d81610d21565b9050919050565b7f4e487b7100000000000000000000000000000000000000000000000000000000600052603260045260246000fd5b7f596f7520616c726561647920766f7465642e0000000000000000000000000000600082015250565b6000610dc9601283610c7b565b9150610dd482610d93565b602082019050919050565b60006020820190508181036000830152610df881610dbc565b9050919050565b7f53656c662d64656c65676174696f6e20697320646973616c6c6f7765642e0000600082015250565b6000610e35601e83610c7b565b9150610e4082610dff565b602082019050919050565b60006020820190508181036000830152610e6481610e28565b9050919050565b7f466f756e64206c6f6f7020696e2064656c65676174696f6e2e00000000000000600082015250565b6000610ea1601983610c7b565b9150610eac82610e6b565b602082019050919050565b60006020820190508181036000830152610ed081610e94565b9050919050565b6000610ee2826109f7565b91507fffffffffffffffffffffffffffffffffffffffffffffffffffffffffffffffff8203610f1457610f13610bf6565b5b600182019050919050565b7f4f6e6c79206368616972706572736f6e2063616e20676976652072696768742060008201527f746f20766f74652e000000000000000000000000000000000000000000000000602082015250565b6000610f7b602883610c7b565b9150610f8682610f1f565b604082019050919050565b60006020820190508181036000830152610faa81610f6e565b9050919050565b7f54686520766f74657220616c726561647920766f7465642e0000000000000000600082015250565b6000610fe7601883610c7b565b9150610ff282610fb1565b602082019050919050565b6000602082019050818103600083015261101681610fda565b905091905056fea26469706673582212208f8db395d172892eaba711c24d50a398035e3298f980b378cefb4ffdde08c76b64736f6c634300080d0033",
					"opcodes": "PUSH1 0x80 PUSH1 0x40 MSTORE CALLVALUE DUP1 ISZERO PUSH3 0x11 JUMPI PUSH1 0x0 DUP1 REVERT JUMPDEST POP PUSH1 0x40 MLOAD PUSH3 0x14B3 CODESIZE SUB DUP1 PUSH3 0x14B3 DUP4 CODECOPY DUP2 DUP2 ADD PUSH1 0x40 MSTORE DUP2 ADD SWAP1 PUSH3 0x37 SWAP2 SWAP1 PUSH3 0x34A JUMP JUMPDEST CALLER PUSH1 0x0 DUP1 PUSH2 0x100 EXP DUP2 SLOAD DUP2 PUSH20 0xFFFFFFFFFFFFFFFFFFFFFFFFFFFFFFFFFFFFFFFF MUL NOT AND SWAP1 DUP4 PUSH20 0xFFFFFFFFFFFFFFFFFFFFFFFFFFFFFFFFFFFFFFFF AND MUL OR SWAP1 SSTORE POP PUSH1 0x1 PUSH1 0x2 PUSH1 0x0 DUP1 PUSH1 0x0 SWAP1 SLOAD SWAP1 PUSH2 0x100 EXP SWAP1 DIV PUSH20 0xFFFFFFFFFFFFFFFFFFFFFFFFFFFFFFFFFFFFFFFF AND PUSH20 0xFFFFFFFFFFFFFFFFFFFFFFFFFFFFFFFFFFFFFFFF AND PUSH20 0xFFFFFFFFFFFFFFFFFFFFFFFFFFFFFFFFFFFFFFFF AND DUP2 MSTORE PUSH1 0x20 ADD SWAP1 DUP2 MSTORE PUSH1 0x20 ADD PUSH1 0x0 KECCAK256 PUSH1 0x0 ADD DUP2 SWAP1 SSTORE POP TIMESTAMP PUSH1 0x1 DUP2 SWAP1 SSTORE POP PUSH1 0x0 JUMPDEST DUP2 MLOAD DUP2 LT ISZERO PUSH3 0x17E JUMPI PUSH1 0x3 PUSH1 0x40 MLOAD DUP1 PUSH1 0x40 ADD PUSH1 0x40 MSTORE DUP1 DUP5 DUP5 DUP2 MLOAD DUP2 LT PUSH3 0x117 JUMPI PUSH3 0x116 PUSH3 0x39B JUMP JUMPDEST JUMPDEST PUSH1 0x20 MUL PUSH1 0x20 ADD ADD MLOAD DUP2 MSTORE PUSH1 0x20 ADD PUSH1 0x0 DUP2 MSTORE POP SWAP1 DUP1 PUSH1 0x1 DUP2 SLOAD ADD DUP1 DUP3 SSTORE DUP1 SWAP2 POP POP PUSH1 0x1 SWAP1 SUB SWAP1 PUSH1 0x0 MSTORE PUSH1 0x20 PUSH1 0x0 KECCAK256 SWAP1 PUSH1 0x2 MUL ADD PUSH1 0x0 SWAP1 SWAP2 SWAP1 SWAP2 SWAP1 SWAP2 POP PUSH1 0x0 DUP3 ADD MLOAD DUP2 PUSH1 0x0 ADD SSTORE PUSH1 0x20 DUP3 ADD MLOAD DUP2 PUSH1 0x1 ADD SSTORE POP POP DUP1 DUP1 PUSH3 0x175 SWAP1 PUSH3 0x403 JUMP JUMPDEST SWAP2 POP POP PUSH3 0xEA JUMP JUMPDEST POP POP PUSH3 0x450 JUMP JUMPDEST PUSH1 0x0 PUSH1 0x40 MLOAD SWAP1 POP SWAP1 JUMP JUMPDEST PUSH1 0x0 DUP1 REVERT JUMPDEST PUSH1 0x0 DUP1 REVERT JUMPDEST PUSH1 0x0 DUP1 REVERT JUMPDEST PUSH1 0x0 PUSH1 0x1F NOT PUSH1 0x1F DUP4 ADD AND SWAP1 POP SWAP2 SWAP1 POP JUMP JUMPDEST PUSH32 0x4E487B7100000000000000000000000000000000000000000000000000000000 PUSH1 0x0 MSTORE PUSH1 0x41 PUSH1 0x4 MSTORE PUSH1 0x24 PUSH1 0x0 REVERT JUMPDEST PUSH3 0x1EA DUP3 PUSH3 0x19F JUMP JUMPDEST DUP2 ADD DUP2 DUP2 LT PUSH8 0xFFFFFFFFFFFFFFFF DUP3 GT OR ISZERO PUSH3 0x20C JUMPI PUSH3 0x20B PUSH3 0x1B0 JUMP JUMPDEST JUMPDEST DUP1 PUSH1 0x40 MSTORE POP POP POP JUMP JUMPDEST PUSH1 0x0 PUSH3 0x221 PUSH3 0x186 JUMP JUMPDEST SWAP1 POP PUSH3 0x22F DUP3 DUP3 PUSH3 0x1DF JUMP JUMPDEST SWAP2 SWAP1 POP JUMP JUMPDEST PUSH1 0x0 PUSH8 0xFFFFFFFFFFFFFFFF DUP3 GT ISZERO PUSH3 0x252 JUMPI PUSH3 0x251 PUSH3 0x1B0 JUMP JUMPDEST JUMPDEST PUSH1 0x20 DUP3 MUL SWAP1 POP PUSH1 0x20 DUP2 ADD SWAP1 POP SWAP2 SWAP1 POP JUMP JUMPDEST PUSH1 0x0 DUP1 REVERT JUMPDEST PUSH1 0x0 DUP2 SWAP1 POP SWAP2 SWAP1 POP JUMP JUMPDEST PUSH3 0x27D DUP2 PUSH3 0x268 JUMP JUMPDEST DUP2 EQ PUSH3 0x289 JUMPI PUSH1 0x0 DUP1 REVERT JUMPDEST POP JUMP JUMPDEST PUSH1 0x0 DUP2 MLOAD SWAP1 POP PUSH3 0x29D DUP2 PUSH3 0x272 JUMP JUMPDEST SWAP3 SWAP2 POP POP JUMP JUMPDEST PUSH1 0x0 PUSH3 0x2BA PUSH3 0x2B4 DUP5 PUSH3 0x234 JUMP JUMPDEST PUSH3 0x215 JUMP JUMPDEST SWAP1 POP DUP1 DUP4 DUP3 MSTORE PUSH1 0x20 DUP3 ADD SWAP1 POP PUSH1 0x20 DUP5 MUL DUP4 ADD DUP6 DUP2 GT ISZERO PUSH3 0x2E0 JUMPI PUSH3 0x2DF PUSH3 0x263 JUMP JUMPDEST JUMPDEST DUP4 JUMPDEST DUP2 DUP2 LT ISZERO PUSH3 0x30D JUMPI DUP1 PUSH3 0x2F8 DUP9 DUP3 PUSH3 0x28C JUMP JUMPDEST DUP5 MSTORE PUSH1 0x20 DUP5 ADD SWAP4 POP POP PUSH1 0x20 DUP2 ADD SWAP1 POP PUSH3 0x2E2 JUMP JUMPDEST POP POP POP SWAP4 SWAP3 POP POP POP JUMP JUMPDEST PUSH1 0x0 DUP3 PUSH1 0x1F DUP4 ADD SLT PUSH3 0x32F JUMPI PUSH3 0x32E PUSH3 0x19A JUMP JUMPDEST JUMPDEST DUP2 MLOAD PUSH3 0x341 DUP5 DUP3 PUSH1 0x20 DUP7 ADD PUSH3 0x2A3 JUMP JUMPDEST SWAP2 POP POP SWAP3 SWAP2 POP POP JUMP JUMPDEST PUSH1 0x0 PUSH1 0x20 DUP3 DUP5 SUB SLT ISZERO PUSH3 0x363 JUMPI PUSH3 0x362 PUSH3 0x190 JUMP JUMPDEST JUMPDEST PUSH1 0x0 DUP3 ADD MLOAD PUSH8 0xFFFFFFFFFFFFFFFF DUP2 GT ISZERO PUSH3 0x384 JUMPI PUSH3 0x383 PUSH3 0x195 JUMP JUMPDEST JUMPDEST PUSH3 0x392 DUP5 DUP3 DUP6 ADD PUSH3 0x317 JUMP JUMPDEST SWAP2 POP POP SWAP3 SWAP2 POP POP JUMP JUMPDEST PUSH32 0x4E487B7100000000000000000000000000000000000000000000000000000000 PUSH1 0x0 MSTORE PUSH1 0x32 PUSH1 0x4 MSTORE PUSH1 0x24 PUSH1 0x0 REVERT JUMPDEST PUSH32 0x4E487B7100000000000000000000000000000000000000000000000000000000 PUSH1 0x0 MSTORE PUSH1 0x11 PUSH1 0x4 MSTORE PUSH1 0x24 PUSH1 0x0 REVERT JUMPDEST PUSH1 0x0 DUP2 SWAP1 POP SWAP2 SWAP1 POP JUMP JUMPDEST PUSH1 0x0 PUSH3 0x410 DUP3 PUSH3 0x3F9 JUMP JUMPDEST SWAP2 POP PUSH32 0xFFFFFFFFFFFFFFFFFFFFFFFFFFFFFFFFFFFFFFFFFFFFFFFFFFFFFFFFFFFFFFFF DUP3 SUB PUSH3 0x445 JUMPI PUSH3 0x444 PUSH3 0x3CA JUMP JUMPDEST JUMPDEST PUSH1 0x1 DUP3 ADD SWAP1 POP SWAP2 SWAP1 POP JUMP JUMPDEST PUSH2 0x1053 DUP1 PUSH3 0x460 PUSH1 0x0 CODECOPY PUSH1 0x0 RETURN INVALID PUSH1 0x80 PUSH1 0x40 MSTORE CALLVALUE DUP1 ISZERO PUSH2 0x10 JUMPI PUSH1 0x0 DUP1 REVERT JUMPDEST POP PUSH1 0x4 CALLDATASIZE LT PUSH2 0x93 JUMPI PUSH1 0x0 CALLDATALOAD PUSH1 0xE0 SHR DUP1 PUSH4 0x609FF1BD GT PUSH2 0x66 JUMPI DUP1 PUSH4 0x609FF1BD EQ PUSH2 0x11F JUMPI DUP1 PUSH4 0x78E97925 EQ PUSH2 0x13D JUMPI DUP1 PUSH4 0x9E7B8D61 EQ PUSH2 0x15B JUMPI DUP1 PUSH4 0xA3EC138D EQ PUSH2 0x177 JUMPI DUP1 PUSH4 0xE2BA53F0 EQ PUSH2 0x1AA JUMPI PUSH2 0x93 JUMP JUMPDEST DUP1 PUSH4 0x121B93F EQ PUSH2 0x98 JUMPI DUP1 PUSH4 0x13CF08B EQ PUSH2 0xB4 JUMPI DUP1 PUSH4 0x2E4176CF EQ PUSH2 0xE5 JUMPI DUP1 PUSH4 0x5C19A95C EQ PUSH2 0x103 JUMPI JUMPDEST PUSH1 0x0 DUP1 REVERT JUMPDEST PUSH2 0xB2 PUSH1 0x4 DUP1 CALLDATASIZE SUB DUP2 ADD SWAP1 PUSH2 0xAD SWAP2 SWAP1 PUSH2 0xA2D JUMP JUMPDEST PUSH2 0x1C8 JUMP JUMPDEST STOP JUMPDEST PUSH2 0xCE PUSH1 0x4 DUP1 CALLDATASIZE SUB DUP2 ADD SWAP1 PUSH2 0xC9 SWAP2 SWAP1 PUSH2 0xA2D JUMP JUMPDEST PUSH2 0x329 JUMP JUMPDEST PUSH1 0x40 MLOAD PUSH2 0xDC SWAP3 SWAP2 SWAP1 PUSH2 0xA82 JUMP JUMPDEST PUSH1 0x40 MLOAD DUP1 SWAP2 SUB SWAP1 RETURN JUMPDEST PUSH2 0xED PUSH2 0x35D JUMP JUMPDEST PUSH1 0x40 MLOAD PUSH2 0xFA SWAP2 SWAP1 PUSH2 0xAEC JUMP JUMPDEST PUSH1 0x40 MLOAD DUP1 SWAP2 SUB SWAP1 RETURN JUMPDEST PUSH2 0x11D PUSH1 0x4 DUP1 CALLDATASIZE SUB DUP2 ADD SWAP1 PUSH2 0x118 SWAP2 SWAP1 PUSH2 0xB33 JUMP JUMPDEST PUSH2 0x381 JUMP JUMPDEST STOP JUMPDEST PUSH2 0x127 PUSH2 0x71B JUMP JUMPDEST PUSH1 0x40 MLOAD PUSH2 0x134 SWAP2 SWAP1 PUSH2 0xB60 JUMP JUMPDEST PUSH1 0x40 MLOAD DUP1 SWAP2 SUB SWAP1 RETURN JUMPDEST PUSH2 0x145 PUSH2 0x7A3 JUMP JUMPDEST PUSH1 0x40 MLOAD PUSH2 0x152 SWAP2 SWAP1 PUSH2 0xB60 JUMP JUMPDEST PUSH1 0x40 MLOAD DUP1 SWAP2 SUB SWAP1 RETURN JUMPDEST PUSH2 0x175 PUSH1 0x4 DUP1 CALLDATASIZE SUB DUP2 ADD SWAP1 PUSH2 0x170 SWAP2 SWAP1 PUSH2 0xB33 JUMP JUMPDEST PUSH2 0x7A9 JUMP JUMPDEST STOP JUMPDEST PUSH2 0x191 PUSH1 0x4 DUP1 CALLDATASIZE SUB DUP2 ADD SWAP1 PUSH2 0x18C SWAP2 SWAP1 PUSH2 0xB33 JUMP JUMPDEST PUSH2 0x961 JUMP JUMPDEST PUSH1 0x40 MLOAD PUSH2 0x1A1 SWAP5 SWAP4 SWAP3 SWAP2 SWAP1 PUSH2 0xB96 JUMP JUMPDEST PUSH1 0x40 MLOAD DUP1 SWAP2 SUB SWAP1 RETURN JUMPDEST PUSH2 0x1B2 PUSH2 0x9BE JUMP JUMPDEST PUSH1 0x40 MLOAD PUSH2 0x1BF SWAP2 SWAP1 PUSH2 0xBDB JUMP JUMPDEST PUSH1 0x40 MLOAD DUP1 SWAP2 SUB SWAP1 RETURN JUMPDEST PUSH2 0x12C PUSH1 0x1 SLOAD PUSH2 0x1D8 SWAP2 SWAP1 PUSH2 0xC25 JUMP JUMPDEST TIMESTAMP LT PUSH2 0x1E3 JUMPI PUSH1 0x0 DUP1 REVERT JUMPDEST PUSH1 0x0 PUSH1 0x2 PUSH1 0x0 CALLER PUSH20 0xFFFFFFFFFFFFFFFFFFFFFFFFFFFFFFFFFFFFFFFF AND PUSH20 0xFFFFFFFFFFFFFFFFFFFFFFFFFFFFFFFFFFFFFFFF AND DUP2 MSTORE PUSH1 0x20 ADD SWAP1 DUP2 MSTORE PUSH1 0x20 ADD PUSH1 0x0 KECCAK256 SWAP1 POP PUSH1 0x0 DUP2 PUSH1 0x0 ADD SLOAD SUB PUSH2 0x26D JUMPI PUSH1 0x40 MLOAD PUSH32 0x8C379A000000000000000000000000000000000000000000000000000000000 DUP2 MSTORE PUSH1 0x4 ADD PUSH2 0x264 SWAP1 PUSH2 0xCD8 JUMP JUMPDEST PUSH1 0x40 MLOAD DUP1 SWAP2 SUB SWAP1 REVERT JUMPDEST DUP1 PUSH1 0x1 ADD PUSH1 0x0 SWAP1 SLOAD SWAP1 PUSH2 0x100 EXP SWAP1 DIV PUSH1 0xFF AND ISZERO PUSH2 0x2BF JUMPI PUSH1 0x40 MLOAD PUSH32 0x8C379A000000000000000000000000000000000000000000000000000000000 DUP2 MSTORE PUSH1 0x4 ADD PUSH2 0x2B6 SWAP1 PUSH2 0xD44 JUMP JUMPDEST PUSH1 0x40 MLOAD DUP1 SWAP2 SUB SWAP1 REVERT JUMPDEST PUSH1 0x1 DUP2 PUSH1 0x1 ADD PUSH1 0x0 PUSH2 0x100 EXP DUP2 SLOAD DUP2 PUSH1 0xFF MUL NOT AND SWAP1 DUP4 ISZERO ISZERO MUL OR SWAP1 SSTORE POP DUP2 DUP2 PUSH1 0x2 ADD DUP2 SWAP1 SSTORE POP DUP1 PUSH1 0x0 ADD SLOAD PUSH1 0x3 DUP4 DUP2 SLOAD DUP2 LT PUSH2 0x2FE JUMPI PUSH2 0x2FD PUSH2 0xD64 JUMP JUMPDEST JUMPDEST SWAP1 PUSH1 0x0 MSTORE PUSH1 0x20 PUSH1 0x0 KECCAK256 SWAP1 PUSH1 0x2 MUL ADD PUSH1 0x1 ADD PUSH1 0x0 DUP3 DUP3 SLOAD PUSH2 0x31E SWAP2 SWAP1 PUSH2 0xC25 JUMP JUMPDEST SWAP3 POP POP DUP2 SWAP1 SSTORE POP POP POP JUMP JUMPDEST PUSH1 0x3 DUP2 DUP2 SLOAD DUP2 LT PUSH2 0x339 JUMPI PUSH1 0x0 DUP1 REVERT JUMPDEST SWAP1 PUSH1 0x0 MSTORE PUSH1 0x20 PUSH1 0x0 KECCAK256 SWAP1 PUSH1 0x2 MUL ADD PUSH1 0x0 SWAP2 POP SWAP1 POP DUP1 PUSH1 0x0 ADD SLOAD SWAP1 DUP1 PUSH1 0x1 ADD SLOAD SWAP1 POP DUP3 JUMP JUMPDEST PUSH1 0x0 DUP1 SLOAD SWAP1 PUSH2 0x100 EXP SWAP1 DIV PUSH20 0xFFFFFFFFFFFFFFFFFFFFFFFFFFFFFFFFFFFFFFFF AND DUP2 JUMP JUMPDEST PUSH1 0x0 PUSH1 0x2 PUSH1 0x0 CALLER PUSH20 0xFFFFFFFFFFFFFFFFFFFFFFFFFFFFFFFFFFFFFFFF AND PUSH20 0xFFFFFFFFFFFFFFFFFFFFFFFFFFFFFFFFFFFFFFFF AND DUP2 MSTORE PUSH1 0x20 ADD SWAP1 DUP2 MSTORE PUSH1 0x20 ADD PUSH1 0x0 KECCAK256 SWAP1 POP DUP1 PUSH1 0x1 ADD PUSH1 0x0 SWAP1 SLOAD SWAP1 PUSH2 0x100 EXP SWAP1 DIV PUSH1 0xFF AND ISZERO PUSH2 0x416 JUMPI PUSH1 0x40 MLOAD PUSH32 0x8C379A000000000000000000000000000000000000000000000000000000000 DUP2 MSTORE PUSH1 0x4 ADD PUSH2 0x40D SWAP1 PUSH2 0xDDF JUMP JUMPDEST PUSH1 0x40 MLOAD DUP1 SWAP2 SUB SWAP1 REVERT JUMPDEST CALLER PUSH20 0xFFFFFFFFFFFFFFFFFFFFFFFFFFFFFFFFFFFFFFFF AND DUP3 PUSH20 0xFFFFFFFFFFFFFFFFFFFFFFFFFFFFFFFFFFFFFFFF AND SUB PUSH2 0x484 JUMPI PUSH1 0x40 MLOAD PUSH32 0x8C379A000000000000000000000000000000000000000000000000000000000 DUP2 MSTORE PUSH1 0x4 ADD PUSH2 0x47B SWAP1 PUSH2 0xE4B JUMP JUMPDEST PUSH1 0x40 MLOAD DUP1 SWAP2 SUB SWAP1 REVERT JUMPDEST JUMPDEST PUSH1 0x0 PUSH20 0xFFFFFFFFFFFFFFFFFFFFFFFFFFFFFFFFFFFFFFFF AND PUSH1 0x2 PUSH1 0x0 DUP5 PUSH20 0xFFFFFFFFFFFFFFFFFFFFFFFFFFFFFFFFFFFFFFFF AND PUSH20 0xFFFFFFFFFFFFFFFFFFFFFFFFFFFFFFFFFFFFFFFF AND DUP2 MSTORE PUSH1 0x20 ADD SWAP1 DUP2 MSTORE PUSH1 0x20 ADD PUSH1 0x0 KECCAK256 PUSH1 0x1 ADD PUSH1 0x1 SWAP1 SLOAD SWAP1 PUSH2 0x100 EXP SWAP1 DIV PUSH20 0xFFFFFFFFFFFFFFFFFFFFFFFFFFFFFFFFFFFFFFFF AND PUSH20 0xFFFFFFFFFFFFFFFFFFFFFFFFFFFFFFFFFFFFFFFF AND EQ PUSH2 0x5F3 JUMPI PUSH1 0x2 PUSH1 0x0 DUP4 PUSH20 0xFFFFFFFFFFFFFFFFFFFFFFFFFFFFFFFFFFFFFFFF AND PUSH20 0xFFFFFFFFFFFFFFFFFFFFFFFFFFFFFFFFFFFFFFFF AND DUP2 MSTORE PUSH1 0x20 ADD SWAP1 DUP2 MSTORE PUSH1 0x20 ADD PUSH1 0x0 KECCAK256 PUSH1 0x1 ADD PUSH1 0x1 SWAP1 SLOAD SWAP1 PUSH2 0x100 EXP SWAP1 DIV PUSH20 0xFFFFFFFFFFFFFFFFFFFFFFFFFFFFFFFFFFFFFFFF AND SWAP2 POP CALLER PUSH20 0xFFFFFFFFFFFFFFFFFFFFFFFFFFFFFFFFFFFFFFFF AND DUP3 PUSH20 0xFFFFFFFFFFFFFFFFFFFFFFFFFFFFFFFFFFFFFFFF AND SUB PUSH2 0x5EE JUMPI PUSH1 0x40 MLOAD PUSH32 0x8C379A000000000000000000000000000000000000000000000000000000000 DUP2 MSTORE PUSH1 0x4 ADD PUSH2 0x5E5 SWAP1 PUSH2 0xEB7 JUMP JUMPDEST PUSH1 0x40 MLOAD DUP1 SWAP2 SUB SWAP1 REVERT JUMPDEST PUSH2 0x485 JUMP JUMPDEST PUSH1 0x1 DUP2 PUSH1 0x1 ADD PUSH1 0x0 PUSH2 0x100 EXP DUP2 SLOAD DUP2 PUSH1 0xFF MUL NOT AND SWAP1 DUP4 ISZERO ISZERO MUL OR SWAP1 SSTORE POP DUP2 DUP2 PUSH1 0x1 ADD PUSH1 0x1 PUSH2 0x100 EXP DUP2 SLOAD DUP2 PUSH20 0xFFFFFFFFFFFFFFFFFFFFFFFFFFFFFFFFFFFFFFFF MUL NOT AND SWAP1 DUP4 PUSH20 0xFFFFFFFFFFFFFFFFFFFFFFFFFFFFFFFFFFFFFFFF AND MUL OR SWAP1 SSTORE POP PUSH1 0x0 PUSH1 0x2 PUSH1 0x0 DUP5 PUSH20 0xFFFFFFFFFFFFFFFFFFFFFFFFFFFFFFFFFFFFFFFF AND PUSH20 0xFFFFFFFFFFFFFFFFFFFFFFFFFFFFFFFFFFFFFFFF AND DUP2 MSTORE PUSH1 0x20 ADD SWAP1 DUP2 MSTORE PUSH1 0x20 ADD PUSH1 0x0 KECCAK256 SWAP1 POP DUP1 PUSH1 0x1 ADD PUSH1 0x0 SWAP1 SLOAD SWAP1 PUSH2 0x100 EXP SWAP1 DIV PUSH1 0xFF AND ISZERO PUSH2 0x6F6 JUMPI DUP2 PUSH1 0x0 ADD SLOAD PUSH1 0x3 DUP3 PUSH1 0x2 ADD SLOAD DUP2 SLOAD DUP2 LT PUSH2 0x6CA JUMPI PUSH2 0x6C9 PUSH2 0xD64 JUMP JUMPDEST JUMPDEST SWAP1 PUSH1 0x0 MSTORE PUSH1 0x20 PUSH1 0x0 KECCAK256 SWAP1 PUSH1 0x2 MUL ADD PUSH1 0x1 ADD PUSH1 0x0 DUP3 DUP3 SLOAD PUSH2 0x6EA SWAP2 SWAP1 PUSH2 0xC25 JUMP JUMPDEST SWAP3 POP POP DUP2 SWAP1 SSTORE POP PUSH2 0x716 JUMP JUMPDEST DUP2 PUSH1 0x0 ADD SLOAD DUP2 PUSH1 0x0 ADD PUSH1 0x0 DUP3 DUP3 SLOAD PUSH2 0x70E SWAP2 SWAP1 PUSH2 0xC25 JUMP JUMPDEST SWAP3 POP POP DUP2 SWAP1 SSTORE POP JUMPDEST POP POP POP JUMP JUMPDEST PUSH1 0x0 DUP1 PUSH1 0x0 SWAP1 POP PUSH1 0x0 JUMPDEST PUSH1 0x3 DUP1 SLOAD SWAP1 POP DUP2 LT ISZERO PUSH2 0x79E JUMPI DUP2 PUSH1 0x3 DUP3 DUP2 SLOAD DUP2 LT PUSH2 0x747 JUMPI PUSH2 0x746 PUSH2 0xD64 JUMP JUMPDEST JUMPDEST SWAP1 PUSH1 0x0 MSTORE PUSH1 0x20 PUSH1 0x0 KECCAK256 SWAP1 PUSH1 0x2 MUL ADD PUSH1 0x1 ADD SLOAD GT ISZERO PUSH2 0x78B JUMPI PUSH1 0x3 DUP2 DUP2 SLOAD DUP2 LT PUSH2 0x773 JUMPI PUSH2 0x772 PUSH2 0xD64 JUMP JUMPDEST JUMPDEST SWAP1 PUSH1 0x0 MSTORE PUSH1 0x20 PUSH1 0x0 KECCAK256 SWAP1 PUSH1 0x2 MUL ADD PUSH1 0x1 ADD SLOAD SWAP2 POP DUP1 SWAP3 POP JUMPDEST DUP1 DUP1 PUSH2 0x796 SWAP1 PUSH2 0xED7 JUMP JUMPDEST SWAP2 POP POP PUSH2 0x725 JUMP JUMPDEST POP POP SWAP1 JUMP JUMPDEST PUSH1 0x1 SLOAD DUP2 JUMP JUMPDEST PUSH1 0x0 DUP1 SLOAD SWAP1 PUSH2 0x100 EXP SWAP1 DIV PUSH20 0xFFFFFFFFFFFFFFFFFFFFFFFFFFFFFFFFFFFFFFFF AND PUSH20 0xFFFFFFFFFFFFFFFFFFFFFFFFFFFFFFFFFFFFFFFF AND CALLER PUSH20 0xFFFFFFFFFFFFFFFFFFFFFFFFFFFFFFFFFFFFFFFF AND EQ PUSH2 0x837 JUMPI PUSH1 0x40 MLOAD PUSH32 0x8C379A000000000000000000000000000000000000000000000000000000000 DUP2 MSTORE PUSH1 0x4 ADD PUSH2 0x82E SWAP1 PUSH2 0xF91 JUMP JUMPDEST PUSH1 0x40 MLOAD DUP1 SWAP2 SUB SWAP1 REVERT JUMPDEST PUSH1 0x2 PUSH1 0x0 DUP3 PUSH20 0xFFFFFFFFFFFFFFFFFFFFFFFFFFFFFFFFFFFFFFFF AND PUSH20 0xFFFFFFFFFFFFFFFFFFFFFFFFFFFFFFFFFFFFFFFF AND DUP2 MSTORE PUSH1 0x20 ADD SWAP1 DUP2 MSTORE PUSH1 0x20 ADD PUSH1 0x0 KECCAK256 PUSH1 0x1 ADD PUSH1 0x0 SWAP1 SLOAD SWAP1 PUSH2 0x100 EXP SWAP1 DIV PUSH1 0xFF AND ISZERO PUSH2 0x8C7 JUMPI PUSH1 0x40 MLOAD PUSH32 0x8C379A000000000000000000000000000000000000000000000000000000000 DUP2 MSTORE PUSH1 0x4 ADD PUSH2 0x8BE SWAP1 PUSH2 0xFFD JUMP JUMPDEST PUSH1 0x40 MLOAD DUP1 SWAP2 SUB SWAP1 REVERT JUMPDEST PUSH1 0x0 PUSH1 0x2 PUSH1 0x0 DUP4 PUSH20 0xFFFFFFFFFFFFFFFFFFFFFFFFFFFFFFFFFFFFFFFF AND PUSH20 0xFFFFFFFFFFFFFFFFFFFFFFFFFFFFFFFFFFFFFFFF AND DUP2 MSTORE PUSH1 0x20 ADD SWAP1 DUP2 MSTORE PUSH1 0x20 ADD PUSH1 0x0 KECCAK256 PUSH1 0x0 ADD SLOAD EQ PUSH2 0x916 JUMPI PUSH1 0x0 DUP1 REVERT JUMPDEST PUSH1 0x1 PUSH1 0x2 PUSH1 0x0 DUP4 PUSH20 0xFFFFFFFFFFFFFFFFFFFFFFFFFFFFFFFFFFFFFFFF AND PUSH20 0xFFFFFFFFFFFFFFFFFFFFFFFFFFFFFFFFFFFFFFFF AND DUP2 MSTORE PUSH1 0x20 ADD SWAP1 DUP2 MSTORE PUSH1 0x20 ADD PUSH1 0x0 KECCAK256 PUSH1 0x0 ADD DUP2 SWAP1 SSTORE POP POP JUMP JUMPDEST PUSH1 0x2 PUSH1 0x20 MSTORE DUP1 PUSH1 0x0 MSTORE PUSH1 0x40 PUSH1 0x0 KECCAK256 PUSH1 0x0 SWAP2 POP SWAP1 POP DUP1 PUSH1 0x0 ADD SLOAD SWAP1 DUP1 PUSH1 0x1 ADD PUSH1 0x0 SWAP1 SLOAD SWAP1 PUSH2 0x100 EXP SWAP1 DIV PUSH1 0xFF AND SWAP1 DUP1 PUSH1 0x1 ADD PUSH1 0x1 SWAP1 SLOAD SWAP1 PUSH2 0x100 EXP SWAP1 DIV PUSH20 0xFFFFFFFFFFFFFFFFFFFFFFFFFFFFFFFFFFFFFFFF AND SWAP1 DUP1 PUSH1 0x2 ADD SLOAD SWAP1 POP DUP5 JUMP JUMPDEST PUSH1 0x0 PUSH1 0x3 PUSH2 0x9CA PUSH2 0x71B JUMP JUMPDEST DUP2 SLOAD DUP2 LT PUSH2 0x9DB JUMPI PUSH2 0x9DA PUSH2 0xD64 JUMP JUMPDEST JUMPDEST SWAP1 PUSH1 0x0 MSTORE PUSH1 0x20 PUSH1 0x0 KECCAK256 SWAP1 PUSH1 0x2 MUL ADD PUSH1 0x0 ADD SLOAD SWAP1 POP SWAP1 JUMP JUMPDEST PUSH1 0x0 DUP1 REVERT JUMPDEST PUSH1 0x0 DUP2 SWAP1 POP SWAP2 SWAP1 POP JUMP JUMPDEST PUSH2 0xA0A DUP2 PUSH2 0x9F7 JUMP JUMPDEST DUP2 EQ PUSH2 0xA15 JUMPI PUSH1 0x0 DUP1 REVERT JUMPDEST POP JUMP JUMPDEST PUSH1 0x0 DUP2 CALLDATALOAD SWAP1 POP PUSH2 0xA27 DUP2 PUSH2 0xA01 JUMP JUMPDEST SWAP3 SWAP2 POP POP JUMP JUMPDEST PUSH1 0x0 PUSH1 0x20 DUP3 DUP5 SUB SLT ISZERO PUSH2 0xA43 JUMPI PUSH2 0xA42 PUSH2 0x9F2 JUMP JUMPDEST JUMPDEST PUSH1 0x0 PUSH2 0xA51 DUP5 DUP3 DUP6 ADD PUSH2 0xA18 JUMP JUMPDEST SWAP2 POP POP SWAP3 SWAP2 POP POP JUMP JUMPDEST PUSH1 0x0 DUP2 SWAP1 POP SWAP2 SWAP1 POP JUMP JUMPDEST PUSH2 0xA6D DUP2 PUSH2 0xA5A JUMP JUMPDEST DUP3 MSTORE POP POP JUMP JUMPDEST PUSH2 0xA7C DUP2 PUSH2 0x9F7 JUMP JUMPDEST DUP3 MSTORE POP POP JUMP JUMPDEST PUSH1 0x0 PUSH1 0x40 DUP3 ADD SWAP1 POP PUSH2 0xA97 PUSH1 0x0 DUP4 ADD DUP6 PUSH2 0xA64 JUMP JUMPDEST PUSH2 0xAA4 PUSH1 0x20 DUP4 ADD DUP5 PUSH2 0xA73 JUMP JUMPDEST SWAP4 SWAP3 POP POP POP JUMP JUMPDEST PUSH1 0x0 PUSH20 0xFFFFFFFFFFFFFFFFFFFFFFFFFFFFFFFFFFFFFFFF DUP3 AND SWAP1 POP SWAP2 SWAP1 POP JUMP JUMPDEST PUSH1 0x0 PUSH2 0xAD6 DUP3 PUSH2 0xAAB JUMP JUMPDEST SWAP1 POP SWAP2 SWAP1 POP JUMP JUMPDEST PUSH2 0xAE6 DUP2 PUSH2 0xACB JUMP JUMPDEST DUP3 MSTORE POP POP JUMP JUMPDEST PUSH1 0x0 PUSH1 0x20 DUP3 ADD SWAP1 POP PUSH2 0xB01 PUSH1 0x0 DUP4 ADD DUP5 PUSH2 0xADD JUMP JUMPDEST SWAP3 SWAP2 POP POP JUMP JUMPDEST PUSH2 0xB10 DUP2 PUSH2 0xACB JUMP JUMPDEST DUP2 EQ PUSH2 0xB1B JUMPI PUSH1 0x0 DUP1 REVERT JUMPDEST POP JUMP JUMPDEST PUSH1 0x0 DUP2 CALLDATALOAD SWAP1 POP PUSH2 0xB2D DUP2 PUSH2 0xB07 JUMP JUMPDEST SWAP3 SWAP2 POP POP JUMP JUMPDEST PUSH1 0x0 PUSH1 0x20 DUP3 DUP5 SUB SLT ISZERO PUSH2 0xB49 JUMPI PUSH2 0xB48 PUSH2 0x9F2 JUMP JUMPDEST JUMPDEST PUSH1 0x0 PUSH2 0xB57 DUP5 DUP3 DUP6 ADD PUSH2 0xB1E JUMP JUMPDEST SWAP2 POP POP SWAP3 SWAP2 POP POP JUMP JUMPDEST PUSH1 0x0 PUSH1 0x20 DUP3 ADD SWAP1 POP PUSH2 0xB75 PUSH1 0x0 DUP4 ADD DUP5 PUSH2 0xA73 JUMP JUMPDEST SWAP3 SWAP2 POP POP JUMP JUMPDEST PUSH1 0x0 DUP2 ISZERO ISZERO SWAP1 POP SWAP2 SWAP1 POP JUMP JUMPDEST PUSH2 0xB90 DUP2 PUSH2 0xB7B JUMP JUMPDEST DUP3 MSTORE POP POP JUMP JUMPDEST PUSH1 0x0 PUSH1 0x80 DUP3 ADD SWAP1 POP PUSH2 0xBAB PUSH1 0x0 DUP4 ADD DUP8 PUSH2 0xA73 JUMP JUMPDEST PUSH2 0xBB8 PUSH1 0x20 DUP4 ADD DUP7 PUSH2 0xB87 JUMP JUMPDEST PUSH2 0xBC5 PUSH1 0x40 DUP4 ADD DUP6 PUSH2 0xADD JUMP JUMPDEST PUSH2 0xBD2 PUSH1 0x60 DUP4 ADD DUP5 PUSH2 0xA73 JUMP JUMPDEST SWAP6 SWAP5 POP POP POP POP POP JUMP JUMPDEST PUSH1 0x0 PUSH1 0x20 DUP3 ADD SWAP1 POP PUSH2 0xBF0 PUSH1 0x0 DUP4 ADD DUP5 PUSH2 0xA64 JUMP JUMPDEST SWAP3 SWAP2 POP POP JUMP JUMPDEST PUSH32 0x4E487B7100000000000000000000000000000000000000000000000000000000 PUSH1 0x0 MSTORE PUSH1 0x11 PUSH1 0x4 MSTORE PUSH1 0x24 PUSH1 0x0 REVERT JUMPDEST PUSH1 0x0 PUSH2 0xC30 DUP3 PUSH2 0x9F7 JUMP JUMPDEST SWAP2 POP PUSH2 0xC3B DUP4 PUSH2 0x9F7 JUMP JUMPDEST SWAP3 POP DUP3 PUSH32 0xFFFFFFFFFFFFFFFFFFFFFFFFFFFFFFFFFFFFFFFFFFFFFFFFFFFFFFFFFFFFFFFF SUB DUP3 GT ISZERO PUSH2 0xC70 JUMPI PUSH2 0xC6F PUSH2 0xBF6 JUMP JUMPDEST JUMPDEST DUP3 DUP3 ADD SWAP1 POP SWAP3 SWAP2 POP POP JUMP JUMPDEST PUSH1 0x0 DUP3 DUP3 MSTORE PUSH1 0x20 DUP3 ADD SWAP1 POP SWAP3 SWAP2 POP POP JUMP JUMPDEST PUSH32 0x486173206E6F20726967687420746F20766F7465000000000000000000000000 PUSH1 0x0 DUP3 ADD MSTORE POP JUMP JUMPDEST PUSH1 0x0 PUSH2 0xCC2 PUSH1 0x14 DUP4 PUSH2 0xC7B JUMP JUMPDEST SWAP2 POP PUSH2 0xCCD DUP3 PUSH2 0xC8C JUMP JUMPDEST PUSH1 0x20 DUP3 ADD SWAP1 POP SWAP2 SWAP1 POP JUMP JUMPDEST PUSH1 0x0 PUSH1 0x20 DUP3 ADD SWAP1 POP DUP2 DUP2 SUB PUSH1 0x0 DUP4 ADD MSTORE PUSH2 0xCF1 DUP2 PUSH2 0xCB5 JUMP JUMPDEST SWAP1 POP SWAP2 SWAP1 POP JUMP JUMPDEST PUSH32 0x416C726561647920766F7465642E000000000000000000000000000000000000 PUSH1 0x0 DUP3 ADD MSTORE POP JUMP JUMPDEST PUSH1 0x0 PUSH2 0xD2E PUSH1 0xE DUP4 PUSH2 0xC7B JUMP JUMPDEST SWAP2 POP PUSH2 0xD39 DUP3 PUSH2 0xCF8 JUMP JUMPDEST PUSH1 0x20 DUP3 ADD SWAP1 POP SWAP2 SWAP1 POP JUMP JUMPDEST PUSH1 0x0 PUSH1 0x20 DUP3 ADD SWAP1 POP DUP2 DUP2 SUB PUSH1 0x0 DUP4 ADD MSTORE PUSH2 0xD5D DUP2 PUSH2 0xD21 JUMP JUMPDEST SWAP1 POP SWAP2 SWAP1 POP JUMP JUMPDEST PUSH32 0x4E487B7100000000000000000000000000000000000000000000000000000000 PUSH1 0x0 MSTORE PUSH1 0x32 PUSH1 0x4 MSTORE PUSH1 0x24 PUSH1 0x0 REVERT JUMPDEST PUSH32 0x596F7520616C726561647920766F7465642E0000000000000000000000000000 PUSH1 0x0 DUP3 ADD MSTORE POP JUMP JUMPDEST PUSH1 0x0 PUSH2 0xDC9 PUSH1 0x12 DUP4 PUSH2 0xC7B JUMP JUMPDEST SWAP2 POP PUSH2 0xDD4 DUP3 PUSH2 0xD93 JUMP JUMPDEST PUSH1 0x20 DUP3 ADD SWAP1 POP SWAP2 SWAP1 POP JUMP JUMPDEST PUSH1 0x0 PUSH1 0x20 DUP3 ADD SWAP1 POP DUP2 DUP2 SUB PUSH1 0x0 DUP4 ADD MSTORE PUSH2 0xDF8 DUP2 PUSH2 0xDBC JUMP JUMPDEST SWAP1 POP SWAP2 SWAP1 POP JUMP JUMPDEST PUSH32 0x53656C662D64656C65676174696F6E20697320646973616C6C6F7765642E0000 PUSH1 0x0 DUP3 ADD MSTORE POP JUMP JUMPDEST PUSH1 0x0 PUSH2 0xE35 PUSH1 0x1E DUP4 PUSH2 0xC7B JUMP JUMPDEST SWAP2 POP PUSH2 0xE40 DUP3 PUSH2 0xDFF JUMP JUMPDEST PUSH1 0x20 DUP3 ADD SWAP1 POP SWAP2 SWAP1 POP JUMP JUMPDEST PUSH1 0x0 PUSH1 0x20 DUP3 ADD SWAP1 POP DUP2 DUP2 SUB PUSH1 0x0 DUP4 ADD MSTORE PUSH2 0xE64 DUP2 PUSH2 0xE28 JUMP JUMPDEST SWAP1 POP SWAP2 SWAP1 POP JUMP JUMPDEST PUSH32 0x466F756E64206C6F6F7020696E2064656C65676174696F6E2E00000000000000 PUSH1 0x0 DUP3 ADD MSTORE POP JUMP JUMPDEST PUSH1 0x0 PUSH2 0xEA1 PUSH1 0x19 DUP4 PUSH2 0xC7B JUMP JUMPDEST SWAP2 POP PUSH2 0xEAC DUP3 PUSH2 0xE6B JUMP JUMPDEST PUSH1 0x20 DUP3 ADD SWAP1 POP SWAP2 SWAP1 POP JUMP JUMPDEST PUSH1 0x0 PUSH1 0x20 DUP3 ADD SWAP1 POP DUP2 DUP2 SUB PUSH1 0x0 DUP4 ADD MSTORE PUSH2 0xED0 DUP2 PUSH2 0xE94 JUMP JUMPDEST SWAP1 POP SWAP2 SWAP1 POP JUMP JUMPDEST PUSH1 0x0 PUSH2 0xEE2 DUP3 PUSH2 0x9F7 JUMP JUMPDEST SWAP2 POP PUSH32 0xFFFFFFFFFFFFFFFFFFFFFFFFFFFFFFFFFFFFFFFFFFFFFFFFFFFFFFFFFFFFFFFF DUP3 SUB PUSH2 0xF14 JUMPI PUSH2 0xF13 PUSH2 0xBF6 JUMP JUMPDEST JUMPDEST PUSH1 0x1 DUP3 ADD SWAP1 POP SWAP2 SWAP1 POP JUMP JUMPDEST PUSH32 0x4F6E6C79206368616972706572736F6E2063616E206769766520726967687420 PUSH1 0x0 DUP3 ADD MSTORE PUSH32 0x746F20766F74652E000000000000000000000000000000000000000000000000 PUSH1 0x20 DUP3 ADD MSTORE POP JUMP JUMPDEST PUSH1 0x0 PUSH2 0xF7B PUSH1 0x28 DUP4 PUSH2 0xC7B JUMP JUMPDEST SWAP2 POP PUSH2 0xF86 DUP3 PUSH2 0xF1F JUMP JUMPDEST PUSH1 0x40 DUP3 ADD SWAP1 POP SWAP2 SWAP1 POP JUMP JUMPDEST PUSH1 0x0 PUSH1 0x20 DUP3 ADD SWAP1 POP DUP2 DUP2 SUB PUSH1 0x0 DUP4 ADD MSTORE PUSH2 0xFAA DUP2 PUSH2 0xF6E JUMP JUMPDEST SWAP1 POP SWAP2 SWAP1 POP JUMP JUMPDEST PUSH32 0x54686520766F74657220616C726561647920766F7465642E0000000000000000 PUSH1 0x0 DUP3 ADD MSTORE POP JUMP JUMPDEST PUSH1 0x0 PUSH2 0xFE7 PUSH1 0x18 DUP4 PUSH2 0xC7B JUMP JUMPDEST SWAP2 POP PUSH2 0xFF2 DUP3 PUSH2 0xFB1 JUMP JUMPDEST PUSH1 0x20 DUP3 ADD SWAP1 POP SWAP2 SWAP1 POP JUMP JUMPDEST PUSH1 0x0 PUSH1 0x20 DUP3 ADD SWAP1 POP DUP2 DUP2 SUB PUSH1 0x0 DUP4 ADD MSTORE PUSH2 0x1016 DUP2 PUSH2 0xFDA JUMP JUMPDEST SWAP1 POP SWAP2 SWAP1 POP JUMP INVALID LOG2 PUSH5 0x6970667358 0x22 SLT KECCAK256 DUP16 DUP14 0xB3 SWAP6 0xD1 PUSH19 0x892EABA711C24D50A398035E3298F980B378CE 0xFB 0x4F REVERT 0xDE ADDMOD 0xC7 PUSH12 0x64736F6C634300080D003300 "
				},
				"gasEstimates": {
					"creation": {
						"codeDepositCost": "835800",
						"executionCost": "infinite",
						"totalCost": "infinite"
					},
					"external": {
						"chairperson()": "2556",
						"delegate(address)": "infinite",
						"giveRightToVote(address)": "29347",
						"proposals(uint256)": "infinite",
						"startTime()": "2451",
						"vote(uint256)": "infinite",
						"voters(address)": "infinite",
						"winnerName()": "infinite",
						"winningProposal()": "infinite"
					}
				},
				"methodIdentifiers": {
					"chairperson()": "2e4176cf",
					"delegate(address)": "5c19a95c",
					"giveRightToVote(address)": "9e7b8d61",
					"proposals(uint256)": "013cf08b",
					"startTime()": "78e97925",
					"vote(uint256)": "0121b93f",
					"voters(address)": "a3ec138d",
					"winnerName()": "e2ba53f0",
					"winningProposal()": "609ff1bd"
				}
			},
			"storageLayout": {
				"storage": [
					{
						"astId": 18,
						"contract": "contracts/3_Ballot.sol:Ballot",
						"label": "chairperson",
						"offset": 0,
						"slot": "0",
						"type": "t_address"
					},
					{
						"astId": 20,
						"contract": "contracts/3_Ballot.sol:Ballot",
						"label": "startTime",
						"offset": 0,
						"slot": "1",
						"type": "t_uint256"
					},
					{
						"astId": 25,
						"contract": "contracts/3_Ballot.sol:Ballot",
						"label": "voters",
						"offset": 0,
						"slot": "2",
						"type": "t_mapping(t_address,t_struct(Voter)11_storage)"
					},
					{
						"astId": 29,
						"contract": "contracts/3_Ballot.sol:Ballot",
						"label": "proposals",
						"offset": 0,
						"slot": "3",
						"type": "t_array(t_struct(Proposal)16_storage)dyn_storage"
					}
				],
				"types": {
					"t_address": {
						"encoding": "inplace",
						"label": "address",
						"numberOfBytes": "20"
					},
					"t_array(t_struct(Proposal)16_storage)dyn_storage": {
						"base": "t_struct(Proposal)16_storage",
						"encoding": "dynamic_array",
						"label": "struct Ballot.Proposal[]",
						"numberOfBytes": "32"
					},
					"t_bool": {
						"encoding": "inplace",
						"label": "bool",
						"numberOfBytes": "1"
					},
					"t_bytes32": {
						"encoding": "inplace",
						"label": "bytes32",
						"numberOfBytes": "32"
					},
					"t_mapping(t_address,t_struct(Voter)11_storage)": {
						"encoding": "mapping",
						"key": "t_address",
						"label": "mapping(address => struct Ballot.Voter)",
						"numberOfBytes": "32",
						"value": "t_struct(Voter)11_storage"
					},
					"t_struct(Proposal)16_storage": {
						"encoding": "inplace",
						"label": "struct Ballot.Proposal",
						"members": [
							{
								"astId": 13,
								"contract": "contracts/3_Ballot.sol:Ballot",
								"label": "name",
								"offset": 0,
								"slot": "0",
								"type": "t_bytes32"
							},
							{
								"astId": 15,
								"contract": "contracts/3_Ballot.sol:Ballot",
								"label": "voteCount",
								"offset": 0,
								"slot": "1",
								"type": "t_uint256"
							}
						],
						"numberOfBytes": "64"
					},
					"t_struct(Voter)11_storage": {
						"encoding": "inplace",
						"label": "struct Ballot.Voter",
						"members": [
							{
								"astId": 4,
								"contract": "contracts/3_Ballot.sol:Ballot",
								"label": "weight",
								"offset": 0,
								"slot": "0",
								"type": "t_uint256"
							},
							{
								"astId": 6,
								"contract": "contracts/3_Ballot.sol:Ballot",
								"label": "voted",
								"offset": 0,
								"slot": "1",
								"type": "t_bool"
							},
							{
								"astId": 8,
								"contract": "contracts/3_Ballot.sol:Ballot",
								"label": "delegate",
								"offset": 1,
								"slot": "1",
								"type": "t_address"
							},
							{
								"astId": 10,
								"contract": "contracts/3_Ballot.sol:Ballot",
								"label": "vote",
								"offset": 0,
								"slot": "2",
								"type": "t_uint256"
							}
						],
						"numberOfBytes": "96"
					},
					"t_uint256": {
						"encoding": "inplace",
						"label": "uint256",
						"numberOfBytes": "32"
					}
				}
			},
			"userdoc": {
				"kind": "user",
				"methods": {},
				"version": 1
			}
		}
	}
}